:100000000C94CC000C94EB000C94EB000C94EB00E3
:100010000C94EB000C94EB000C94EB000C94EB00B4
:100020000C94EB000C94EB000C94EB000C94EB00A4
:100030000C94EB000C94EB000C94EB000C94EB0094
:100040000C94EB000C9406030C94EB000C94EB0066
:100050000C94EB000C94EB000C94EB000C94EB0074
:100060000C94EB000C94EB000C94EB000C94EB0064
:100070000C94EB000C94EB000C94EB000C94EB0054
:100080000C94EB000C94EB000C94EB003136330035
:10009000322E3131006E616E00696E660000407A6A
:1000A00010F35A00A0724E18090010A5D4E8000001
:1000B000E87648170000E40B54020000CA9A3B009F
:1000C0000000E1F505000080969800000040420F16
:1000D000000000A08601000000102700000000E8DA
:1000E00003000000006400000000000A000000009F
:1000F000000100000000002C76D888DC674F082340
:10010000DFC1DFAE59E1B1B796E5E3E453C63AE6A5
:1001100051997696E8E6C28426EB898C9B62ED4085
:100120007C6FFCEFBC9C9F40F2BAA56FA5F49005D4
:100130005A2AF75C936B6CF9676DC11BFCE0E40D08
:1001400047FEF520E6B500D0ED902E0300943577FC
:10015000050080841E080000204E0A000000C80C24
:10016000333333330F986E12831141EF8D2114898D
:100170003BE65516CFFEE6DB18D1844B381BF77CE7
:100180001D901DA4BBE424203284725E228100C92C
:10019000F124ECA1E53D270011241FBECFEFD0E1F3
:1001A000DEBFCDBF13E0A0E0B1E0EEEBF1E200E096
:1001B0000BBF02C007900D92AC38B107D9F724E00D
:1001C000ACE8B3E001C01D92AB33B207E1F70E9487
:1001D00079010C94DD100C94000084990EC08FE01E
:1001E00090E00E94D702849BFECF8FE090E00E94B7
:1001F000D70280B38295817001C080E090E00895BD
:1002000084990BC084E190E00E94D70280B382956C
:100210008F7091E08927817001C080E090E008959F
:10022000CF93DF930E947909EBEFF3E0818132965F
:10023000C82F80E0D82FC53BD1053CF484E0E130E5
:10024000F807A1F780E090E002C081E090E0DF9144
:10025000CF9108950F931F93CF93DF93CDB7DEB760
:1002600064970FB6F894DEBF0FBECDBF8C0165E07A
:1002700080E00E94D70480E493E00E9459096FE077
:1002800080E00E94D7040130110581F034F401159B
:100290001105A9F46FE473E00EC00230110549F0B6
:1002A0000330110561F461E773E005C06BE573E0AD
:1002B00002C065E673E0CE0101960E943B10CE01BC
:1002C00001960E9459090330110541F46EE180E066
:1002D0000E94D70489E793E00E94590964960FB6FB
:1002E000F894DEBF0FBECDBFDF91CF911F910F916C
:1002F000089578940E944A0B0E94FE020E9479029F
:100300000E9498040E94C70A83E080938C03C2E095
:10031000D0E002E0FF24F39413E00E94ED00892B6B
:1003200049F080918C03813019F010928C0302C047
:1003300000938C0380918C03811109C06AE070E006
:100340008AE090E00E94310AF0928C0304C082306F
:1003500011F40E94150A0E941001019741F4809146
:100360008C03833021F00E941B0A10938C03809130
:10037000350490913604892B61F480910B0490919F
:100380000C04892B31F480918C03823011F410938A
:100390008C0380918C0390E0C817D90741F080E06E
:1003A0000E94560480918C0390E00E942A01C09123
:1003B0008C03D0E0B2CF90916500282F30E080E030
:1003C000A9014170507020FF81E09E7F982B90938F
:1003D0006500809165004115510511F490E001C060
:1003E00092E08D7F892B809365008091650021FDCF
:1003F00002C090E001C098E0877F892B8093650060
:10040000809165008F7E809365008FEF8ABB6BBB08
:1004100085E0982F9A95F1F79091650094609093FC
:100420006500982F9A95F1F7909165009B7F9093C6
:1004300065008A95F1F71BBA1ABA08959091650084
:10044000282F30E080E0A9014170507020FF81E04A
:100450009E7F982B90936500809165004115510512
:1004600011F490E001C092E08D7F892B80936500AC
:100470008091650021FD02C090E001C098E0877F77
:10048000892B809365008091650080618093650071
:100490001ABA25E0822F8A95F1F780916500846071
:1004A0008093650085E18A95F1F789B390916500A5
:1004B0009B7F90936500922F9A95F1F708951F9373
:1004C000CF93DF9390918D03992371F0182F1170C2
:1004D000CFEFDFEF812F0E941E02219787FD02C020
:1004E00081E003C02097B1F780E0DF91CF911F91A9
:1004F00008958FEF80938D038091640088608093CE
:100500006400809164008061809364008091640045
:1005100084608093640080916400816080936400B3
:1005200080916400826080936400B89A1ABA8091C6
:100530006500877F80936500809165008F7E809342
:100540006500809165008B7F8093650080916500D8
:100550008E7F80936500809165008D7F809365001C
:10056000C098979B07C0979880EA9FE00197F1F7A2
:10057000979A04C080EA9FE00197F1F7C09A80E063
:100580000E945F02882351F081E00E945F0288236D
:1005900011F082E001C081E080938D0380918D0392
:1005A0008F3F11F410928D0380918D03089520EAFE
:1005B0003FE004C0F9013197F1F701970097D1F7B7
:1005C00008951092CA038093AB03982F9F5F909376
:1005D000AD0396E99093CB03F89403C078940000A0
:1005E000F894B09BFBCF90EC9DB98FB996E9982712
:1005F0009093C903779A789480E00895B898C0984A
:10060000BB9AC39A80E00E94E10208951F920F9264
:100610000FB60F920BB60F9211242F933F934F9367
:100620005F936F937F938F939F93AF93BF93EF935A
:10063000FF939FB12091CB0329272093CB03809177
:10064000CA038823B1F49093A9039C3130F010922F
:10065000AB031092A90391E009C0492F50E020910B
:10066000AD0330E042175307FCF09F5F9093AD035A
:100670001BC0482F50E06091A90370E06417750714
:100680002CF043555C4FFA0190830EC0415050400E
:100690004617570749F4222339F09091AA039F5F28
:1006A0009093AA031092A9039091AB03891750F479
:1006B000E82FF0E0E257FC4F20812FB99091C90359
:1006C000922711C0891731F49091C9039FB91092F4
:1006D000C9030BC09091AD03891758F49FEF9FB9E0
:1006E0009091C90390959093C9038F5F8093CA033B
:1006F00011C0B898C0981DB8B898C0988091AC0344
:100700008F5F8093AC0378948091A9030E94EC0AD8
:100710000E94E102FF91EF91BF91AF919F918F9164
:100720007F916F915F914F913F912F910F900BBEF1
:100730000F900FBE0F901F9018958091CF030895D2
:100740008091D80308958093CC030895982F9052F8
:10075000903608F080E8805290E0FC01EE0FFF1F19
:10076000E80FF91FEE0FFF1FE050FF4F90818091BF
:10077000CE03882309F49FE180E020E090FD8F5FA5
:100780002F5F253011F09695F9CF08951F93CF93E1
:10079000DF93EC0110E005C021960E94A6038F5F55
:1007A000180F88818823C1F7812FDF91CF911F9186
:1007B00008951F93CF93DF93EC0110E007C02196BB
:1007C000F90184910E94A6038F5F180F9E01FE011C
:1007D00094919923A1F7812FDF91CF911F910895D3
:1007E0008093CE0308958091CE030895863130F42E
:1007F000683020F46093CD038093D90308950F935C
:100800001F93DF93CF930F92CDB7DEB7182F6854A5
:10081000883018F580E069830E945F0280E069817A
:100820000E94DB0180E00E945F02612F660F660F6D
:10083000660F605C80E00E94DB0100ED13E082E067
:100840000E945F0282E0F80161918F010E94DB014A
:10085000F3E0083D1F0799F723C0185081E0698332
:100860000E945F0281E069810E94DB0181E00E94B9
:100870005F02612F660F660F660F605C81E00E9469
:10088000DB0100ED13E083E00E945F0283E0F801EA
:1008900061918F010E94DB01F3E0083D1F0799F78A
:1008A0000F90CF91DF911F910F910895FF920F93B9
:1008B0001F93F82E18EB80E00E945F0281E00E94F7
:1008C0005F0280E0612F0E94DB0181E0612F0E94C6
:1008D000DB0100E082E00E945F0283E00E945F0291
:1008E00082E06F2D0E94DB0183E06F2D0E94DB010F
:1008F0000F5F003479F71F5F103CE9F680E00E943B
:100900005F0281E00E945F0280E068EB0E94DB01F1
:1009100081E068EB0E94DB011F910F91FF90089529
:1009200080E00E9456041092CD031092D9030895DE
:1009300080E00E945F0280E06FE30E94DB0180E0C4
:100940000E945F0280E060EC0E94DB0180E00E9478
:100950005F0280E060E40E94DB0180E00E945F02B1
:1009600080E068EB0E94DB0181E00E945F0281E091
:100970006FE30E94DB0181E00E945F0281E060EC96
:100980000E94DB0181E00E945F0281E060E40E943E
:10099000DB0181E00E945F0281E068EB0E94DB01E5
:1009A00080E00E94560481E08093CC0308950F9369
:1009B0001F93182F062F8093CF036093D80380E0F6
:1009C0000E945F0281E00E945F02069506950695EF
:1009D000085480E0602F0E94DB0181E0602F0E94BC
:1009E000DB0180E00E945F0281E00E945F0211341F
:1009F00038F080E060E40E94DB0181E0612F07C0F5
:100A0000612F605C80E00E94DB0181E060E40E9475
:100A1000DB011F910F910895EF92FF920F931F93A7
:100A2000CF93DF9319EB47C00830E8F480E00E94D1
:100A30005F0280E0612F0E94DB0180E00E945F0284
:100A40006F2D605C80E00E94DB0182E00E941E024C
:100A5000C0EDD3E082E00E941E02899383E0C83D8E
:100A6000D807C1F71BC081E00E945F0281E0612FBF
:100A70000E94DB0181E00E945F0281E06F2D0E94F5
:100A8000DB0183E00E941E02C0EDD3E083E00E9400
:100A90001E02899383E0C83DD807C1F7802F6E2DD1
:100AA0000E94FF030F5F88E0F80E003109F0BCCF11
:100AB0001F5F103C31F0FF2400E037E4E32EE10E2D
:100AC000B3CFE0EDF3E0119283E0E83DF807D9F70A
:100AD00010E0812F67E00E94FF031F5F1031C9F70C
:100AE0008091CD03882319F081508093CD03DF914D
:100AF000CF911F910F91FF90EF900895EF92FF9289
:100B00000F931F93E82E162F8091CF0387FD39C0D6
:100B100000E0803408F001E0802F0E945F0242E094
:100B2000F42EF00E8F2D0E941E028F2D0E941E02A9
:100B30009091CC0392FF02C0E0949B7FE122992325
:100B400019F41E2D182B08C0913021F4109518238C
:100B50001E2902C01E2D1827802F0E945F0260915F
:100B6000CF036064802F0E94DB01802F0E945F0210
:100B70008F2D612F0E94DB018091CF038F5F8093C7
:100B8000CF031F910F91FF90EF9008959091D8039C
:100B9000977061E070E002C0660F771F9A95E2F7E8
:100BA000882311F0862F02C0862F60E00E947E0508
:100BB00008952F923F924F925F926F927F928F9201
:100BC0009F92AF92BF92CF92DF92EF92FF920F93DC
:100BD0001F93DF93CF9300D000D000D0CDB7DEB706
:100BE000082F162F5A8349836090CF03E090D803D3
:100BF0008E2D87702FEF30E0F22E01C0FF0C8A950A
:100C0000EAF7802F90E0019768E070E00E94300FD3
:100C10006F5FA62EBB24C50173E0880F991F7A95DC
:100C2000E1F744245524481A590ACC2468E0762E6A
:100C30005FEF852E912CBC82AB8271C08E2D8770A8
:100C4000D72CD81A1D1548F48D2D811B940102C094
:100C5000359527958A95E2F7F2228D2D8C0D90E03F
:100C60008A9D10018B9D300C9A9D300C112480E0E0
:100C700090E09E838D8343C04D815E8147705070AC
:100C80004115510571F5E695E695E695C1018E0F82
:100C9000911DFC01A981BA81EA0FFB1FE40DF51D2E
:100CA00020E030E06D817E819491A0EDB3E08C91E5
:100CB00086958C9390FF02C080688C93119683E098
:100CC000A83DB80711F09695F2CF2F5F3F4F28301F
:100CD000310529F0AB81BC81EA0FFB1FE5CF7E8394
:100CE0006D8340535C4FFA0180818F216F2D0E94EC
:100CF0007E052D813E812F5F3F4F3E832D83ED8109
:100D0000E01708F4B9CF1D1508F4D12E1D19ED0C0C
:100D1000CD0C862D6E2D0E94D704FF24FA9411234A
:100D200009F08CCF26960FB6F894DEBF0FBECDBF6C
:100D3000CF91DF911F910F91FF90EF90DF90CF90B7
:100D4000BF90AF909F908F907F906F905F904F90EB
:100D50003F902F9008952F923F924F925F926F9203
:100D60007F928F929F92AF92BF92CF92DF92EF923B
:100D7000FF920F931F93DF93CF9300D000D000D04A
:100D8000CDB7DEB7082F162F5A8349836090CF0363
:100D9000E090D8038E2D87702FEF30E0F22E01C047
:100DA000FF0C8A95EAF7802F90E0019768E070E0E9
:100DB0000E94300F6F5FA62EBB24C501A3E0880FF1
:100DC000991FAA95E1F744245524481A590ACC24BE
:100DD000F8E07F2EEFEF8E2E912CBC82AB8271C09B
:100DE0008E2D8770D72CD81A1D1548F48D2D811B98
:100DF000940102C0359527958A95E2F7F2228D2D50
:100E00008C0D90E08A9D10018B9D300C9A9D300CCA
:100E1000112480E090E09E838D8343C04D815E81EC
:100E2000477050704115510571F5E695E695E695C8
:100E3000C1018E0F911DFC01A981BA81EA0FFB1F30
:100E4000E40DF51D20E030E06D817E819081A0ED04
:100E5000B3E08C9186958C9390FF02C080688C9350
:100E6000119683E0A83DB80711F09695F2CF2F5F59
:100E70003F4F2830310529F0AB81BC81EA0FFB1FC1
:100E8000E5CF7E836D8340535C4FFA0180818F21D3
:100E90006F2D0E947E052D813E812F5F3F4F3E8347
:100EA0002D83ED81E01708F4B9CF1D1508F4D12E7C
:100EB0001D19ED0CCD0C862D6E2D0E94D704FF243C
:100EC000FA94112309F08CCF26960FB6F894DEBF62
:100ED0000FBECDBFCF91DF911F910F91FF90EF908B
:100EE000DF90CF90BF90AF909F908F907F906F904A
:100EF0005F904F903F902F900895AF92BF92CF9206
:100F0000DF92EF92FF920F931F93CF93DF93A82E60
:100F1000162FB090CF03F090D8038F2D87702FEF4E
:100F200030E0022F01C0000F8A95EAF7B8E0CB2E1F
:100F3000CFEFD0E022C08F2D8770EC2CE81A1E1561
:100F400048F48E2D811B9E0102C0359527958A9508
:100F5000E2F70223DA2C05C0802F602F0E947E0565
:100F6000DA94DD20C9F71E1508F4E12E1E19FE0CD7
:100F70008B2D6F2D0E94D7040FEF1123E1F6DF9127
:100F8000CF911F910F91FF90EF90DF90CF90BF9086
:100F9000AF900895682F81E00E947D0708950F9318
:100FA0001F93182F8091D803877021E030E0022F23
:100FB00001C0000F8A95EAF705C0802F602F0E94BC
:100FC0007E0511501123C9F71F910F9108959F922B
:100FD000AF92BF92CF92DF92EF92FF920F931F9347
:100FE000082F162FF090CF03E090D8038F1561F4EF
:100FF000E61618F4862F8E1904C00E94D7048E2D91
:10100000811B0E94CA075EC0DE2C6E1559F4F816CB
:1010100010F48F1904C00E94D7048F2D801B0E94EA
:10102000CF0750C08F1528F4AF2CA81A99249A9492
:1010300009C0F81618F09924AA2404C0A82EAF18E5
:10104000992493941E1528F4BE2CB11ACC24CA946A
:1010500009C0E11618F0CC24BB2404C0B12EBE1880
:10106000CC24C39481E00E94C605BA14B0F4EA2CE3
:10107000E694E194F90CEB0C1E1414F4EA18DC0C61
:101080008F2D6D2D0E94D70481E00E94C605F90CBA
:101090008F2D8919801779F715C0DB2CD694D19440
:1010A000EC0CDA0C1D1414F4DB18F90C8F2D6E2DDA
:1010B0000E94D70481E00E94C605EC0C8E2D8C198D
:1010C000811779F7802F612F0E94D7041F910F910C
:1010D000FF90EF90DF90CF90BF90AF909F900895DA
:1010E0008F929F92AF92BF92CF92DF92EF92FF9238
:1010F0000F931F93CF93DF93062F982F9052903624
:1011000008F080E8805296E0899FE0011124C050E9
:10111000DF4F18818091CE03882309F41FE1E02E70
:10112000FF24E7FCF0948FEF90E06C010E2C02C0DE
:10113000CC0CDD1C0A94E2F7AA24BB24AE18BF082D
:101140000A2C02C0959587950A94E2F7D82E85E07F
:10115000882E912C8C0E9D1E10FF16C0898107FDD4
:1011600009C090E00E2C02C0880F991F0A94E2F784
:101170006C2D08C090E00A2C02C0959587950A94C2
:10118000E2F76D2D0E947E052196C815D90511F054
:101190001695E2CF07FD03C080E06C2D02C080E011
:1011A0006D2D0E947E05DF91CF911F910F91FF90D1
:1011B000EF90DF90CF90BF90AF909F908F90089569
:1011C000FF920F931F93082FF090CF031091D80335
:1011D0001770612F0E947008112391F06091D8035D
:1011E000685F8F2D0E94D704612F6850802F0E9466
:1011F00070086091D80368508091CF030E94D70493
:101200001F910F91FF9008951F93CF93DF93EC01EF
:101210001092CE0336C01A3069F41092D90380912F
:10122000CD038F5F8093CD03883059F581E00E9414
:101230000C0527C01D3029F18091D903853160F05C
:101240001092D9038091CD038F5F8093CD038830B6
:1012500019F481E00E940C059091D903892F880F21
:10126000890F6091CD03660F660F660F880F0E948D
:10127000D704812F0E94E0088091D9038F5F80936B
:10128000D9031991112339F6DF91CF911F91089558
:10129000CF93DF93EC0105C02196F90184910E9460
:1012A000E0089E01FE0194919923B1F7DF91CF915F
:1012B0000895CF93DF93EC0103C021960E94E008CC
:1012C00088818823D1F7DF91CF91089590E0282F6E
:1012D00030E0F90183E0EE0FFF1F8A95E1F7E21B92
:1012E000F30BE052FC4F80818F3F09F091E0892F92
:1012F0000895F8949091180480E0E8E1F4E02291D8
:10130000820F911D9093FA038093F903938180E0FB
:101310002281820F911D9093FC038093FB039581A2
:1013200080E02481820F911D9093FE038093FD0342
:10133000978180E02681820F911D90930004809315
:10134000FF03918580E02085820F911D9093020418
:10135000809301047894F894209121048091DC0317
:101360009091DD03820F911D3091220420E0820FC5
:10137000931F9093F6038093F503209123048091AB
:10138000DA039091DB03820F911D3091240420E059
:10139000820F931F90930E0480930D049091260466
:1013A00080E020912504820F911D90933604809354
:1013B00035049091280480E020912704820F911D2C
:1013C00090930C0480930B0490912A0480E0209168
:1013D0002904820F911D9093DF038093DE03909187
:1013E0002C0480E020912B04820F911D9093160411
:1013F000809315047894F89490912F0480E02091C4
:101400002E04820F911D9093F8038093F70390911F
:10141000310480E020913004820F911D90933304B9
:1014200080933204789481E00895F89481E0809369
:10143000E00378940895F8948AE08093E003789428
:1014400081E00895F89425E02093E0038093E10380
:101450009093E2036093E3037093E403789481E054
:101460000895F89422E02093E0038093E1039093A1
:10147000E2036093E3037093E403789481E00895BA
:101480002091DC033091DD03FC01E21BF30B9F0193
:101490008091DA039091DB03681B790BF89483E069
:1014A0008093E003E093E1033093E2036093E3036E
:1014B0007093E4034093E5035093E603789481E04E
:1014C0000895F89424E02093E0038093E10390933F
:1014D000E2036093E3037093E4034093E5035093C6
:1014E000E603789481E0089578949091EE0320E1EA
:1014F00037E22150304011F09F3FD9F7F89496E041
:101500009093EE038093EF036093F0034093F10315
:10151000789481E0089581E00895F894309124044E
:1015200020E040912304F901E40FF11DAF01309157
:10153000220420E0E09121042E0F311DFC01E21B6A
:10154000F30BF093DD03E093DC039B01241B350BCD
:101550003093DB032093DA039093F6038093F50333
:1015600070930E0460930D04789481E0089578944C
:101570002091E70380E197E2019711F02F3FE1F717
:10158000F89488E08093E703789481E00895789454
:101590002091E70380E197E2019711F02F3FE1F7F7
:1015A000F89487E08093E703789481E00895789435
:1015B0004091E70320E137E22150304011F04F3FE6
:1015C000D9F7F89429E02093E7038093E8039093F8
:1015D000E903789481E00895909134049F5F90939B
:1015E00034048B3141F4A7E1B4E0EEEAF3E001907A
:1015F0000D928150E1F78FEF80939C0380939503C8
:1016000080938E038091E0038F3F11F480E00DC042
:10161000AEE8B3E0E0EEF3E087E001900D92815098
:10162000E1F78FEF8093E00387E09091E7039F3F1E
:1016300079F0E82FF0E0E257FC4FA7EEB3E097E037
:101640000D9001929150E1F79FEF9093E703895F2E
:101650009091EE039F3F81F0E82FF0E0E257FC4FBE
:10166000AEEEB3E087E00D9001928150E1F78FEF8D
:101670008093EE0385E10895882311F487E00895AF
:1016800085E1089587E00E94690B90933804809368
:10169000370408958F9A97988AE090E00E94D702C5
:1016A000979A84E690E00E94D7020895E1E6F0E080
:1016B000908121E030E002C0220F331F8A95E2F7CB
:1016C000209592239083E2E6F0E08081822380835C
:1016D000089590E497B997B18770892B87B987EC03
:1016E00086B901C000003699FDCF84B195B1392F7C
:1016F00020E0280F311D8091390490913A04820F27
:10170000931F90933A0480933904C90108958091FE
:10171000390490913A0408952F923F924F925F922C
:101720006F927F928F929F92AF92BF92CF92DF92F1
:10173000EF92FF920F931F93CF93DF93CDB7DEB756
:1017400063970FB6F894DEBF0FBECDBF7C011B01BF
:101750006A01FC0117821682838181FF66C3BE0184
:101760006F5F7F4F4B01F7019381F10193FD8591ED
:1017700093FF81911F01882309F453C3853239F403
:1017800093FD859193FF81911F01853239F4B70153
:1017900090E00E944D1056016501E5CF10E0512CFC
:1017A00020E02032A0F48B3269F030F4803259F01E
:1017B000833269F420612CC08D3239F0803339F4E2
:1017C000216026C02260246023C0286021C027FD3C
:1017D00027C030ED380F3A3078F426FF06C0FAE023
:1017E0001F9F300D1124132F13C06AE0569E300D39
:1017F0001124532E20620CC08E3221F426FD11C319
:10180000206406C08C3611F4206802C0883641F48A
:10181000F10193FD859193FF81911F018111C1CF4A
:101820009BEB980F933018F42061805E06C09BE913
:10183000980F933008F0AAC12F7E26FF16E02F7371
:10184000722E853621F4F22FF0647F2E08C0863682
:1018500021F4622F6068762E02C01111115077FEBC
:1018600007C01C3348F444244394410E27E00BC0C6
:10187000183030F4212F06C027E04CE3442E03C07B
:1018800027E017E0412C560174E0A70EB11CF601C9
:101890006081718182819381042DA4010E94580F7F
:1018A0006C01098100FF02C003FF06C071FC07C084
:1018B00072FC08C0612C08C03DE2632E05C02BE21B
:1018C000622E02C090E2692E802F8C7099F1662002
:1018D00011F084E001C083E0851510F0512C0BC09D
:1018E000581A73FC08C0B70180E290E00E944D10C6
:1018F0005A94C9F7F3CF662029F0B701862D90E0FE
:101900000E944D1003FD03C009E910E002C005E983
:1019100010E0F72DF0717F2EF8018491882309F4EF
:1019200076C271108052B70190E00E944D100F5F97
:101930001F4FF2CF77FE0FC04C0C04FF04C08A810A
:10194000813309F44A94141474F5F8E0F41578F529
:1019500088E0482E2CC076FC2AC0812F90E08C15A0
:101960009D059CF06CEFC6166FEFD60674F0772DD0
:101970007068772E0AC0E2E0F0E0EC0FFD1FE10F87
:10198000F11D8081803319F411501111F4CF77FECD
:101990000EC044244394410E812F90E0C816D9060E
:1019A0002CF41C1904C04424439401C010E077FEB9
:1019B00007C01C141D043CF496012F5F3F4F05C067
:1019C00025E030E002C021E030E0662011F02F5F1A
:1019D0003F4F112331F0412F50E04F5F5F4F240FF5
:1019E000351F452D50E02417350714F4521A01C055
:1019F000512C872D897049F4552039F0B70180E2C8
:101A000090E00E944D105A94F7CF662029F0B7015C
:101A1000862D90E00E944D1073FC09C0552039F0CE
:101A2000B70180E390E00E944D105A94F7CF77FE03
:101A30005FC09C2D8D2DD7FE02C090E080E0692E06
:101A4000782E40E050E0C601841991099D878C876B
:101A5000960126193709280D391D812F90E0EE27B0
:101A6000FF27E81BF90BFF87EE87FFEF6F167F0656
:101A700069F4B7018EE290E02B8B3A8B488B598B3F
:101A80000E944D10598948893A892B89C614D70478
:101A900054F06C857D85661577052CF4F901E40F0B
:101AA000F51F818101C080E371E0671A71084F5F03
:101AB0005F4FEE85FF856E167F066CF0B70190E0F4
:101AC0002B8B3A8B488B598B0E944D102B893A896E
:101AD00048895989CACF6C147D0439F49A819633A8
:101AE00018F4953311F404FF81E3B70190E04BC083
:101AF0008A81813309F00F7EB70190E00E944D107A
:101B0000111105C074FE18C085E490E017C0B7013C
:101B10008EE290E00E944D1082E066246394680E8D
:101B2000F401E80FF11D8081B70190E00E944D1093
:101B3000115041F3862DF1CF85E690E0B7010E9468
:101B40004D10D7FC05C0C114D10439F404FF05C001
:101B5000D194C194D1088DE201C08BE2B70190E02D
:101B60000E944D1080E36AE0C616D1042CF08F5F0E
:101B7000FAE0CF1AD108F7CFB70190E00E944D10DC
:101B8000B701C601C0960E944D1041C1833631F0A5
:101B9000833779F0833509F058C021C0560172E0CF
:101BA000A70EB11CF6018081898301E010E0640179
:101BB00014C05601F2E0AF0EB11CF601C080D18016
:101BC00026FF03C0612F70E002C06FEF7FEFC601F8
:101BD0002B8B0E9442108C012B892F7715C0560148
:101BE000F2E0AF0EB11CF601C080D18026FF03C029
:101BF000612F70E002C06FEF7FEFC6012B8B0E9458
:101C000030108C012B892068722E23FD1AC0852D7F
:101C100090E008171907A8F4B70180E290E00E944D
:101C20004D105A94F4CFF60177FC859177FE81919F
:101C30006F01B70190E00E944D1051105A9401506D
:101C400011090115110579F7E2C0843611F08936C2
:101C500051F5560127FF09C0F4E0AF0EB11CF601A3
:101C600060817181828193810AC0F2E0AF0EB11C64
:101C7000F60160817181882777FD8095982F022F6A
:101C80000F7697FF08C090958095709561957F4F6E
:101C90008F4F9F4F00682AE030E0A4010E947F1020
:101CA000C82EC8183EC0022F853721F40F7E2AE0C7
:101CB00030E01DC0097F8F3691F018F4883559F057
:101CC000B0C0803719F0883711F0ABC0006104FF55
:101CD00009C0046007C024FF08C0066006C028E0F1
:101CE00030E005C020E130E002C020E132E05601E2
:101CF00007FF09C0F4E0AF0EB11CF60160817181ED
:101D00008281938108C0F2E0AF0EB11CF6016081C0
:101D1000718180E090E0A4010E947F10C82EC81855
:101D20000F7706FF0BC0202F2E7FC11650F404FF43
:101D30000AC002FD08C0202F2E7E05C0DC2C202FFB
:101D400003C0DC2C01C0D12E24FF0DC0FE01EC0D20
:101D5000F11D8081803311F4297E09C022FF06C065
:101D6000D394D39404C0822F867809F0D39423FDB2
:101D700013C020FF06C01C2DD51418F4150D1D1915
:101D8000D52CD51468F4B70180E290E02B8B0E942B
:101D90004D10D3942B89F5CFD51410F45D1801C0E4
:101DA000512C24FF12C0B70180E390E02B8B0E94DE
:101DB0004D102B8922FF17C021FF03C088E590E05A
:101DC00002C088E790E0B7010CC0822F867859F0F6
:101DD00021FD02C080E201C08BE227FD8DE2B70148
:101DE00090E00E944D10C11638F4B70180E390E0F6
:101DF0000E944D101150F7CFCA94F401EC0DF11D63
:101E00008081B70190E00E944D10C110F5CF5520A0
:101E100009F4C2CCB70180E290E00E944D105A94C0
:101E2000F6CFF7018681978102C08FEF9FEF63960F
:101E30000FB6F894DEBF0FBECDBFDF91CF911F91DB
:101E40000F91FF90EF90DF90CF90BF90AF909F9059
:101E50008F907F906F905F904F903F902F9008955C
:101E600097FB072E16F4009407D077FD09D00E9447
:101E7000440F07FC05D03EF4909581959F4F08953F
:101E8000709561957F4F0895AA1BBB1B51E107C058
:101E9000AA1FBB1FA617B70710F0A61BB70B881FFA
:101EA000991F5A95A9F780959095BC01CD01089589
:101EB000283008F027E03327DA01990F311D87FD1C
:101EC000916000966105710539F432602E5F3D9393
:101ED00030E32A95E1F708959F3F30F0803871058F
:101EE000610509F03C5F3C5F3D93913008F08068EC
:101EF000911DDF93CF931F930F93FF92EF92192FB2
:101F0000987F9695E92F96959695E90FFF27E950CA
:101F1000FF4F99273327EE24FF24A701E7010590FF
:101F20000894079428F4360FE71EF81E491F511D28
:101F3000660F771F881F991F0694A1F705900794D5
:101F400028F4E70EF81E491F561FC11D770F881F82
:101F5000991F661F0694A1F70590079428F4F80EC0
:101F6000491F561FC71FD11D880F991F661F771F56
:101F70000694A1F70590079420F4490F561FC71F38
:101F8000D81F990F661F771F881F0694A9F78491A1
:101F90001095177041F0D695C79557954795F794CA
:101FA000E7941A95C1F7EDE9F0E068941590159162
:101FB00035916591959105907FE27395E118F10A4D
:101FC000430B560BC90BD009C0F7E10CF11E431FA0
:101FD000561FC91FD01D7EF4703311F48A95E6CFC9
:101FE000E894015030F0080F0AF40027021708F4B3
:101FF000202F2395022F7A3328F079E37D932A95B9
:10200000E9F710C07D932A9589F606949795679510
:10201000379517951794E118F10A430B560BC90B26
:10202000D00998F023957E9173957A3308F070E388
:102030007C932013B8F77E9170617D9330F0839587
:1020400071E37D9370E32A95E1F71124EF90FF90FF
:102050000F911F91CF91DF91992787FD909508955A
:10206000FC010590615070400110D8F78095909563
:102070008E0F9F1F0895FB01DC0101900D9200203F
:10208000E1F70895FC016150704001900110D8F70C
:10209000809590958E0F9F1F08950F931F93CF9358
:1020A000DF93182F092FEB018B8181FD03C08FEF88
:1020B0009FEF20C082FF10C04E815F812C813D8147
:1020C000421753077CF4E881F9819F012F5F3F4F4E
:1020D00039832883108306C0E885F985812F099507
:1020E000892B29F72E813F812F5F3F4F3F832E831E
:1020F000812F902FDF91CF911F910F910895FA01B9
:10210000AA27283051F1203181F1E8946F936E7F36
:102110006E5F7F4F8F4F9F4FAF4FB1E03ED0B4E027
:102120003CD0670F781F891F9A1FA11D680F791F68
:102130008A1F911DA11D6A0F711D811D911DA11D79
:1021400020D009F468943F912AE0269F1124301989
:10215000305D3193DEF6CF010895462F4770405D24
:102160004193B3E00FD0C9F7F6CF462F4F70405DD3
:102170004A3318F0495D31FD4052419302D0A9F72E
:10218000EACFB4E0A6959795879577956795BA9528
:10219000C9F700976105710508959B01AC010A2EEE
:1021A00006945795479537952795BA95C9F7620FC5
:0E21B000731F841F951FA01D0895F894FFCF84
:1021BE000300000000000400005F00000E00070096
:1021CE0007001F147F147F141F242A7F2A121F2337
:1021DE00130864621F36495522500600050300009D
:1021EE000E001C2241000E0041221C001F14083E4E
:1021FE0008141F08083E08080600A06000000F081B
:10220E00080808080600606000000E00601C03004D
:10221E001F3E5149453E0E00427F40001F42615114
:10222E0049461D2141454B311F1814127F101D27A1
:10223E0045454539173C4A4949301E017109050388
:10224E001D36494949361D064949291E06003636AE
:10225E0000000600AC6C00000F08142241000F14A1
:10226E00141414141E00412214081F0201510906F1
:10227E001F324979413E1F7C1211127C177F49494A
:10228E004936173E414141221F7F4141221C177F93
:10229E0049494941177F09090901173E4149497AC0
:1022AE00177F0808087F0E00417F41001F20404124
:1022BE003F011F7F08142241177F404040401F7F7F
:1022CE00020C027F1F7F0408107F173E4141413EE2
:1022DE00177F09090906173E414141BE1D7F0919A5
:1022EE0029461746494949311F01017F0101173F10
:1022FE004040403F1F1F2040201F1F3F4038403F9F
:10230E001F63140814631F07087008071F615149E3
:10231E0045430E007F4141000E00031C60000E007D
:10232E0041417F000E04020102041F404040404024
:10233E000C0000030400172054545478177F4844AF
:10234E0044381738444444201D384444487F1738D5
:10235E005454541817087E0901021718A4A4A4781F
:10236E00177F080404780E00447D40000D408084E1
:10237E007D000F7F102844000E00417F40001F7C1F
:10238E0004780478177C08040478173844444438D9
:10239E0017FC242424181718242424FC177C080462
:1023AE00040817485454542017043F4440201D3C41
:1023BE004040207C1F1C2040201C1F3C4030403CD5
:1023CE001F4428102844171CA0A0A07C1F4464544E
:1023DE004C440E00083641000400007F00000E0041
:1023EE00413608001F02010204021FAA55AA55AA6F
:1023FE004D616368696E652073746174653A00732C
:10240E0074617274696E672E2E2E006D6F76696E12
:10241E00672E2E2E0073746F7070696E672E2E2EBF
:10242E000073746F707065640070726573732073DF
:0C243E003320666F7220737461727400AA
:00000001FF
