:100000000C94DC000C94FB000C94FB000C94FB00A3
:100010000C94FB000C94FB000C94FB000C94FB0074
:100020000C94FB000C94FB000C94FB000C94FB0064
:100030000C94FB000C94FB000C9496150C94FB00A4
:100040000C94FB000C9491090C9403080C94340854
:100050000C94FB000C94FB000C94FB000C94FB0034
:100060000C94FB000C94FB000C94FB000C94FB0024
:100070000C94FB000C94FB000C94FB000C94FB0014
:100080000C94FB000C94FB000C94FB005A025D02E4
:1000900060026302660269026C026F0227032D038D
:1000A00030033B032A035A03960387033136330098
:1000B000322E3131006E616E00696E660000407A4A
:1000C00010F35A00A0724E18090010A5D4E80000E1
:1000D000E87648170000E40B54020000CA9A3B007F
:1000E0000000E1F505000080969800000040420FF6
:1000F000000000A08601000000102700000000E8BA
:1001000003000000006400000000000A000000007E
:10011000000100000000002C76D888DC674F08231F
:10012000DFC1DFAE59E1B1B796E5E3E453C63AE685
:1001300051997696E8E6C28426EB898C9B62ED4065
:100140007C6FFCEFBC9C9F40F2BAA56FA5F49005B4
:100150005A2AF75C936B6CF9676DC11BFCE0E40DE8
:1001600047FEF520E6B500D0ED902E0300943577DC
:10017000050080841E080000204E0A000000C80C04
:10018000333333330F986E12831141EF8D2114896D
:100190003BE65516CFFEE6DB18D1844B381BF77CC7
:1001A0001D901DA4BBE424203284725E228100C90C
:1001B000F124ECA1E53D270011241FBECFEFD0E1D3
:1001C000DEBFCDBF14E0A0E0B1E0E8E3F8E300E07B
:1001D0000BBF02C007900D92AE39B107D9F725E0E9
:1001E000AEE9B4E001C01D92A83BB207E1F70E945E
:1001F000F8020C941A1C0C9400000E9404090C9440
:10020000230B0F931F93CF93DF9300D0CDB7DEB7AF
:100210008C0180E090E069837A830E94E10A698121
:100220007A81C8010F900F90DF91CF911F910F91AC
:100230000C94620BCF92DF92EF92FF920F931F9379
:10024000CF93DF93EC017B016A010E94280A8C01A5
:100250000E942B0ABC01FE01EF71FF279E01207650
:1002600033272032310509F174F4232B09F049C0FA
:10027000EE9DC001EF9D900DFE9D900D1124681B19
:10028000790BC80134C02034310501F12036310525
:10029000C1F5EC9DC001ED9D900DFC9D900D1124CC
:1002A0009801281B390BC90122C0CE9EC001CF9EE8
:1002B000900DDE9E900D1124DF91CF911F910F9133
:1002C000FF90EF90DF90CF900C945A0EEE9EC001FD
:1002D000EF9E900DFE9E900D1124DF91CF911F9106
:1002E0000F91FF90EF90DF90CF900C94550EDF911F
:1002F000CF911F910F91FF90EF90DF90CF900C94D2
:10030000720EDF91CF911F910F91FF90EF90DF90D0
:10031000CF900895EF92FF920F931F93CF93DF93A7
:10032000CDB7DEB77C010DB71EB780914403909125
:100330004503019709F567E370E080E090E00E94D3
:10034000620B8DB79EB78E199F090FB6F8949EBFAA
:100350000FBE8DBF0196FC0140E29F01281B390BA7
:100360002E153F0514F44193F8CF0E94E40F0FB609
:10037000F8941EBF0FBE0DBF0FB6F8941EBF0FBE80
:100380000DBFDF91CF911F910F91FF90EF900895D6
:10039000CF93DF93EC018091440390914503019743
:1003A00059F467E370E080E090E00E94620BCE01B8
:1003B000DF91CF910C94E40FDF91CF910895CF930B
:1003C000DF93EC018091A6049091A704019749F472
:1003D00080E090E00E94620BCE01DF91CF910C94FF
:1003E000E40FDF91CF910895CF93DF93EC018091DB
:1003F000400390914103019721F567E370E088E79E
:1004000090E00E94620B83E793E00E94E40F67E3B1
:1004100070E088E790E00E94620BC330D10541F0A4
:10042000C630D10541F0CD2B61F488E493E005C0DE
:100430008AE493E002C08CE493E0DF91CF910C94C6
:10044000E40FDF91CF9108950F931F93CF93DF9324
:10045000CDB7DEB764970FB6F894DEBF0FBECDBF41
:100460008C018091420390914303019709F053C09E
:1004700065E070E080E090E00E94620B8EE493E023
:100480000E94E40F6FE070E080E090E00E94620B59
:100490008DE593E00E94E40F6FE070E080E090E073
:1004A0000E94620B0830110500F5F801EA5BFF4F6E
:1004B0000C943A1A66E773E014C065E873E011C063
:1004C00066E973E00EC065EA73E00BC065EB73E0AC
:1004D00008C065EC73E005C062ED73E002C06AED30
:1004E00073E0CE0101960E94511BCE0101960E943D
:1004F000E40F6EE170E080E090E00630110529F431
:100500000E94620B88EE93E004C00E94620B8DE5AE
:1005100093E00E94E40F64960FB6F894DEBF0FBE1E
:10052000CDBFDF91CF911F910F91089580E895E2A3
:100530000E94B4070C94FE078091440590914505F4
:100540009093B9048093B80480915C0590915D0507
:100550009093BD048093BC0408957091DB047830BF
:10056000D9F00296E62F72E0879FE00D1124CA01B0
:10057000820F931F66E370E00E94041A862F90E2B8
:10058000E99F800D11240E94E20788EC90E00E9410
:10059000620981E090E0089580E090E00895EF9294
:1005A000FF920F931F93CF93DF930E949C02E090E2
:1005B000BC04F090BD040091B8041091B9040E94ED
:1005C000DF03EC010E94DA039701A801BE010E943B
:1005D000AD02EC0160E070E080E090E00E94181154
:1005E000CE01DF91CF911F910F91FF90EF90089571
:1005F00086E08093BA041092BB0482E08093BE042C
:1006000078940E94FF140E9489090E940B150E9491
:1006100096020E9404090E94230B0E9452110E941C
:10062000DE14C7E0D0E000E010E084E0F82E96E0B1
:10063000E92E27E0D22E8091BA0490E0883091050F
:1006400008F084C0FC01E25BFF4F0C943A1A0E9450
:10065000B90475C00E94760779C00E94580676C01A
:1006600064E080E00E94131565E080E00E941315AD
:100670000E94430616C064E080E00E94131565E006
:1006800080E00E9413150E944B06F092BA046AE0C3
:1006900070E08AE090E00E94BC1080ED97E00E943C
:1006A00062098091BB04813009F049C085E08093E4
:1006B000BA044CC00E94CF02019761F48091BB0440
:1006C000811103C0D092BA041DC08130D9F4F092D8
:1006D000BA0418C0E092BA041092BB048BEF93E006
:1006E0000E94C80188EE93E00E94620984E190E0D4
:1006F0000E948A018EE094E00E94C80184E690E0A6
:100700000E94620980E090E00E94D5031FC00E9411
:10071000A0100E945A0789E194E00E94C8010E943B
:10072000B203892BE1F3E092BA0410C00E94A0103A
:100730000E94B203892B51F00130110519F4F09297
:10074000BA0404C01092BA0401E010E08091BA0427
:1007500090E0C817D90711F00E942402C091BA0492
:10076000D0E069CF84990EC08FE090E00E946209CA
:10077000849BFECF8FE090E00E94620980B3829557
:10078000817001C080E090E0089584990BC084E1FD
:1007900090E00E94620980B382958F7091E0892772
:1007A000817001C080E090E008959093AD04809343
:1007B000AC0408958091AC049091AD0408958091AB
:1007C000AA049091AB040895CF92DF92EF92FF922A
:1007D0000F931F93CF93DF93EC017B016A0102E338
:1007E00010E0C801BE010E94041AFB017093C0040E
:1007F0006093BF04C801B7010E94041A7093C50436
:100800006093C404629FD001639FB00D729FB00DCE
:1008100011241596EC9DC001ED9D900DFC9D900D51
:100820001124EC9FA001ED9F500DFC9F500D112451
:1008300020E830E0241B350B37FF02C02F5F3F4F0D
:1008400035952795BD01820F931FDF91CF911F91A1
:100850000F91FF90EF90DF90CF900C940101909159
:10086000D9048091DA04981719F00E94CA07F7CFCB
:1008700008951F93CF93DF93C4E1D0E09091D90402
:100880008091DA049817A1F00E94CA07182F87FFF9
:100890000FC08091DB04883039F0812F0E94E2077D
:1008A00088EC90E00E9462091F77812F90E009C0D8
:1008B00088EC90E00E94620921972097F9F68FEF6B
:1008C0009FEFDF91CF911F9108950F931F93CF93C7
:1008D000DF930AE010E09091D9048091DA04981730
:1008E00089F00E94CA07C82FD0E087FF0BC0909103
:1008F000DB04983099F00E94E20788EC90E00E94B7
:1009000062090CC080E991E00E946209015011095E
:100910000115110501F78FEF9FEF01C0CE01DF91A7
:10092000CF911F910F9108951F93CF93DF93182FAD
:10093000C0E0D0E08091DB04883019F0812F0E9464
:10094000E20788EC90E00E9462099091D9048091BE
:10095000DA04981729F00E94CA0787FDEBCF05C07B
:10096000C530D10511F02196E5CFDF91CF911F91D0
:1009700008952F923F924F925F926F927F928F9243
:100980009F92AF92BF92CF92DF92EF92FF920F931E
:100990001F93CF93DF930E94DE140E94041080E324
:1009A00094E00E94C8018091BE0490E00E94F4018E
:1009B00055E0452E512CC0E0D0E000E010E0E12CE5
:1009C000F12C612C712C0E94041080905105912C07
:1009D000680C791CA0904905B12CEA0CFB1CC09056
:1009E0004F05D12C0C0D1D1D20904B05312CC20D37
:1009F000D31D88EC90E00E94620981E0481A5108FA
:100A00004114510401F725E030E0C301B9010E940F
:100A1000041A6B01C701B9010E94041AFB016C158D
:100A20007D05CCF4C801B9010E94041A84E08093CA
:100A3000BE04D092B504C092B40484E1C81AD108AF
:100A4000D092B304C092B2047093B1046093B00426
:100A50006451710919C0CE01B9010E94041A1092A3
:100A6000BE04CF010A969093B5048093B4043A97DC
:100A7000F093B304E093B204CB010A969093B104CF
:100A80008093B0046A5071097093AF046093AE0410
:100A90008091B4049091B5048B3F910514F04E976A
:100AA00004C0873E91050CF00A979093B704809399
:100AB000B6048091BE0481110FC01092C704109239
:100AC000C60481E090E09093C3048093C204109226
:100AD000AB041092AA0412C084E090E09093C70483
:100AE0008093C60483E090E09093C3048093C20493
:100AF00081E090E09093AB048093AA0481E190E0C0
:100B00000E948A018091BE0490E0DF91CF911F91F5
:100B10000F91FF90EF90DF90CF90BF90AF909F909C
:100B20008F907F906F905F904F903F902F900C949C
:100B3000F40164E083E00E94131565E080E00E9408
:100B400013156CE070E08AE090E00C94BC1065E056
:100B500083E00E94131564E080E00E9413156AE0B0
:100B600070E08CE090E00C94BC10009711F40C94B1
:100B70009905049711F40C94A7050895009711F4B2
:100B80000C94A705049711F40C94990508951092FC
:100B9000AB041092AA0463E083E00E9413150E9444
:100BA00004106FE070E086EF9FEF0E94BC10809110
:100BB0004C0590914D058115944688F780914A0522
:100BC00090914B058115924350F70E94A01063E06D
:100BD00080E00C9413151092AB041092AA0463E009
:100BE00083E00E9413154AE050E06BE170E085EE6F
:100BF0009FEF0E94EC1080ED97E00E94620963E095
:100C000080E00C94131581E090E09093AB04809306
:100C1000AA0466E083E00E9413150E94041066EFA8
:100C20007FEF8FE090E00E94BC1080914C05909186
:100C30004D058115944688F780914E0590914F059A
:100C40008115924350F70E94A01066E080E00C945A
:100C5000131581E090E09093AB048093AA0466E0C2
:100C600083E00E9413154AE050E065EE7FEF8BE1D0
:100C700090E00E94EC1080ED97E00E94620966E02F
:100C800080E00C9413158091BE04811102C00C9475
:100C9000C7050C9403068091BE04811103C00E9415
:100CA000290602C00E94EB0588EE93E00C946209CD
:100CB0000E940410E091C604F091C704EE0FFF1FDC
:100CC000E85BFA4F218130E08091B4049091B50443
:100CD0008217930788F0E091C204F091C304EE0FED
:100CE000FF1FE85BFA4F818190E04091B004509182
:100CF000B1044817590748F481E08093C1048091FA
:100D0000BE0490E00E94B50527C04091B204509106
:100D1000B3042417350738F02091AE043091AF04A6
:100D20008217930740F41092C1048091BE0490E0B2
:100D30000E94BE0511C082E08093C10464E080E09F
:100D40000E94131565E080E00E9413156AE070E0D0
:100D50008AE090E00E94BC108091C10490E09093E2
:100D600047038093460384E08093BA0408950E9469
:100D7000E7138091AC049091AD04892B09F042C037
:100D800080919A0590919B05899730F080919C0500
:100D900090919D058997B0F58091BB048823A1F0BF
:100DA000813049F58CE693E00E948A018BE494E05F
:100DB0000E94C8011092BB0485E08093BA040E948F
:100DC000A01080E090E015C08DE693E00E948A01BB
:100DD00082E494E00E94C80160E070E080E090E06E
:100DE0000E94181181E08093BB040E94A01081E052
:100DF00090E00E94940481E090E09093AD04809391
:100E0000AC04089580E090E00895CF92DF92EF92D5
:100E1000FF920F931F93CF93DF9385E594E00E9499
:100E2000C8010E943904EC018F3F2FEF920759F45B
:100E300084E190E00E948A0185E694E00E94C80166
:100E40008FEF9FEF2EC00E9439048C010E9439045D
:100E50007C010E9439046C0184E190E00E948A01C7
:100E600084E794E00E94C8019601A701B801CE0171
:100E70000E94E4030E9465048F3F2FEF920759F010
:100E80004091BF045091C0046091C4047091C504A6
:100E90000E941A0104C088EC90E00E94620981E07F
:100EA00090E0DF91CF911F910F91FF90EF90DF9035
:100EB000CF900895CF93DF930E942F04C5E0D0E038
:100EC0000E940507019751F480E190E00E948A0199
:100ED00087E894E0DF91CF910C94C80184EF91E012
:100EE0000E9462092197209759F7EECFCF93DF93A5
:100EF0000E940410D0914D05E091BE04F0E0EE0F89
:100F0000FF1FE85BFA4FC1810E94B203892B11F0E9
:100F100086E025C00E94B706019719F18D2F90E059
:100F20002091B6043091B7048217930724F00E94F1
:100F3000A01082E014C08091BE04823079F08C2F22
:100F400090E044975CF483E08093BA0488EE93E0E9
:100F50000E946209DF91CF910C94A01081E08093F0
:100F6000BA04DF91CF9108959C0140E050E084E005
:100F7000220F331F441F551F8A95D1F760E074E29A
:100F800084EF90E00E94181A2150310930939000AC
:100F900029B90895F8949091D904E92FF0E0E75326
:100FA000FB4F80812091DA04283011F49093DA0409
:100FB0009F5F983018F49093D90402C01092D9041E
:100FC00078940895F8949091DB04E92FF0E0EF52C3
:100FD000FB4F80839F5F983018F49093DB0402C02E
:100FE0001092DB042091DB049091C804291303C004
:100FF00098E09093DB04559A7894089588EB8AB929
:1010000008951AB808951F920F920FB60F921124E7
:101010000BB60F928F939F93EF93FF939CB18091A8
:10102000DA048830B1F0E82FF0E0E753FB4F90830B
:101030008F5F883018F48093DA0402C01092DA04CB
:101040009091DA048091D904981303C088E08093CA
:10105000DA04FF91EF919F918F910F900BBE0F904B
:101060000FBE0F901F9018951F920F920FB60F9200
:1010700011240BB60F922F938F939F93EF93FF93AF
:101080008091C8049091DB04891799F0E82FF0E073
:10109000EF52FB4F2081983011F48093DB048F5F77
:1010A000883018F48093C80402C01092C8042CB988
:1010B00001C05598FF91EF919F918F912F910F90C3
:1010C0000BBE0F900FBE0F901F901895909165006A
:1010D000282F30E080E0A9014170507020FF81E0AE
:1010E0009E7F982B90936500809165004115510576
:1010F00011F490E001C092E08D7F892B8093650010
:101100008091650021FD02C090E001C098E0877FDA
:10111000892B80936500809165008F7E80936500A8
:101120008FEF8ABB6BBB85E0982F9A95F1F7909172
:101130006500946090936500982F9A95F1F79091CF
:1011400065009B7F909365008A95F1F71BBA1ABAE8
:10115000089590916500282F30E080E0A90141704A
:10116000507020FF81E09E7F982B909365008091C6
:1011700065004115510511F490E001C092E08D7FAA
:10118000892B809365008091650021FD02C090E06D
:1011900001C098E0877F892B80936500809165006E
:1011A0008061809365001ABA25E0822F8A95F1F755
:1011B0008091650084608093650085E18A95F1F7F0
:1011C00089B3909165009B7F90936500922F9A95CB
:1011D000F1F708951F93CF93DF939091DC04992347
:1011E00071F0182F1170CFEFDFEF812F0E94A90847
:1011F000219787FD02C081E003C02097B1F780E00E
:10120000DF91CF911F9108958FEF8093DC0480913F
:1012100064008860809364008091640080618093A2
:101220006400809164008460809364008091640015
:101230008160809364008091640082608093640088
:10124000B89A1ABA80916500877F80936500809173
:1012500065008F7E80936500809165008B7F809311
:101260006500809165008E7F8093650080916500A8
:101270008D7F80936500C098979B07C0979880EA00
:101280009FE00197F1F7979A04C080EA9FE00197E9
:10129000F1F7C09A80E00E94EA08882351F081E0CB
:1012A0000E94EA08882311F082E001C081E0809367
:1012B000DC048091DC048F3F11F41092DC048091F7
:1012C000DC04089520EA3FE004C0F9013197F1F70A
:1012D00001970097D1F70895109219058093FA04A9
:1012E000982F9F5F9093FC0496E990931A05F894C9
:1012F00003C078940000F894B09BFBCF90EC9DB9AC
:101300008FB996E9982790931805779A789480E09A
:101310000895B898C098BB9AC39A80E00E946C095F
:1013200008951F920F920FB60F920BB60F921124D1
:101330002F933F934F935F936F937F938F939F93DD
:10134000AF93BF93EF93FF939FB120911A05292785
:1013500020931A05809119058823B1F49093F8041D
:101360009C3130F01092FA041092F80491E009C018
:10137000492F50E02091FC0430E042175307FCF065
:101380009F5F9093FC041BC0482F50E06091F804CD
:1013900070E0641775072CF044505B4FFA0190839E
:1013A0000EC0415050404617570749F4222339F0E8
:1013B0009091F9049F5F9093F9041092F804909132
:1013C000FA04891750F4E82FF0E0E352FB4F208134
:1013D0002FB990911805922711C0891731F4909177
:1013E00018059FB9109218050BC09091FC0489173D
:1013F00058F49FEF9FB99091180590959093180518
:101400008F5F8093190511C0B898C0981DB8B8981F
:10141000C0988091FB048F5F8093FB047894809147
:10142000F8040E9477110E946C09FF91EF91BF911F
:10143000AF919F918F917F916F915F914F913F916C
:101440002F910F900BBE0F900FBE0F901F9018950D
:1014500080911E05089580912705089580931B05AE
:101460000895982F9052903608F080E8805290E0CE
:10147000FC01EE0FFF1FE80FF91FEE0FFF1FE050FA
:10148000FF4F908180911D05882309F49FE180E042
:1014900020E090FD8F5F2F5F253011F09695F9CFFA
:1014A00008951F93CF93DF93EC0110E005C02196C0
:1014B0000E94310A8F5F180F88818823C1F7812F1E
:1014C000DF91CF911F9108951F93CF93DF93EC018C
:1014D00010E007C02196F90184910E94310A8F5FC4
:1014E000180F9E01FE0194919923A1F7812FDF919E
:1014F000CF911F91089580931D05089580911D053A
:101500000895863130F4683020F460931C05809390
:10151000280508950F931F93DF93CF930F92CDB7B4
:10152000DEB7182F6854883018F580E069830E9470
:10153000EA0880E069810E94660880E00E94EA086B
:10154000612F660F660F660F605C80E00E94660880
:101550000FE115E082E00E94EA0882E0F801619163
:101560008F010E946608F5E007321F0799F723C034
:10157000185081E069830E94EA0881E069810E9435
:10158000660881E00E94EA08612F660F660F660F09
:10159000605C81E00E9466080FE115E083E00E9434
:1015A000EA0883E0F80161918F010E946608F5E086
:1015B00007321F0799F70F90CF91DF911F910F917D
:1015C0000895FF920F931F93F82E18EB80E00E946E
:1015D000EA0881E00E94EA0880E0612F0E94660824
:1015E00081E0612F0E94660800E082E00E94EA0824
:1015F00083E00E94EA0882E06F2D0E94660883E083
:101600006F2D0E9466080F5F003479F71F5F103C52
:10161000E9F680E00E94EA0881E00E94EA0880E0A2
:1016200068EB0E94660881E068EB0E9466081F91E3
:101630000F91FF90089580E00E94E10A10921C052E
:1016400010922805089580E00E94EA0880E06FE388
:101650000E94660880E00E94EA0880E060EC0E9438
:10166000660880E00E94EA0880E060E40E94660864
:1016700080E00E94EA0880E068EB0E94660881E052
:101680000E94EA0881E06FE30E94660881E00E9400
:10169000EA0881E060EC0E94660881E00E94EA08A6
:1016A00081E060E40E94660881E00E94EA0881E02F
:1016B00068EB0E94660880E00E94E10A81E0809366
:1016C0001B0508950F931F93182F062F80931E0557
:1016D0006093270580E00E94EA0881E00E94EA0802
:1016E000069506950695085480E0602F0E946608CE
:1016F00081E0602F0E94660880E00E94EA0881E095
:101700000E94EA08113438F080E060E40E94660824
:1017100081E0612F07C0612F605C80E00E94660855
:1017200081E060E40E9466081F910F910895EF9296
:10173000FF920F931F93CF93DF9319EB47C00830AD
:10174000E8F480E00E94EA0880E0612F0E946608C9
:1017500080E00E94EA086F2D605C80E00E946608CD
:1017600082E00E94A908CFE1D5E082E00E94A908AA
:10177000899385E0C732D807C1F71BC081E00E947A
:10178000EA0881E0612F0E94660881E00E94EA0871
:1017900081E06F2D0E94660883E00E94A908CFE1D6
:1017A000D5E083E00E94A908899385E0C732D80775
:1017B000C1F7802F6E2D0E948A0A0F5F88E0F80E15
:1017C000003109F0BCCF1F5F103C31F0FF2400E076
:1017D00037E4E32EE10EB3CFEFE1F5E0119285E0BF
:1017E000E732F807D9F710E0812F67E00E948A0AF4
:1017F0001F5F1031C9F780911C05882319F08150B3
:1018000080931C05DF91CF911F910F91FF90EF9076
:101810000895EF92FF920F931F93E82E162F809159
:101820001E0587FD39C000E0803408F001E0802FFC
:101830000E94EA0842E0F42EF00E8F2D0E94A908C3
:101840008F2D0E94A90890911B0592FF02C0E09481
:101850009B7FE122992319F41E2D182B08C091308B
:1018600021F4109518231E2902C01E2D1827802F41
:101870000E94EA0860911E056064802F0E9466083D
:10188000802F0E94EA088F2D612F0E9466088091A8
:101890001E058F5F80931E051F910F91FF90EF90A3
:1018A000089590912705977061E070E002C0660F7F
:1018B000771F9A95E2F7882311F0862F02C0862FB2
:1018C00060E00E94090C08952F923F924F925F9220
:1018D0006F927F928F929F92AF92BF92CF92DF9240
:1018E000EF92FF920F931F93DF93CF9300D000D01E
:1018F00000D0CDB7DEB7082F162F5A8349836090EA
:101900001E05E09027058E2D87702FEF30E0F22E18
:1019100001C0FF0C8A95EAF7802F90E0019768E0FC
:1019200070E00E94041A6F5FA62EBB24C50173E00D
:10193000880F991F7A95E1F744245524481A590ACB
:10194000CC2468E0762E5FEF852E912CBC82AB8292
:1019500071C08E2D8770D72CD81A1D1548F48D2D87
:10196000811B940102C0359527958A95E2F7F222F2
:101970008D2D8C0D90E08A9D10018B9D300C9A9DD1
:10198000300C112480E090E09E838D8343C04D8114
:101990005E81477050704115510571F5E695E695E9
:1019A000E695C1018E0F911DFC01A981BA81EA0F54
:1019B000FB1FE40DF51D20E030E06D817E819491E8
:1019C000AFE1B5E08C9186958C9390FF02C0806862
:1019D0008C93119685E0A732B80711F09695F2CF57
:1019E0002F5F3F4F2830310529F0AB81BC81EA0FD2
:1019F000FB1FE5CF7E836D83415E5A4FFA018081E4
:101A00008F216F2D0E94090C2D813E812F5F3F4F4A
:101A10003E832D83ED81E01708F4B9CF1D1508F43E
:101A2000D12E1D19ED0CCD0C862D6E2D0E94620B52
:101A3000FF24FA94112309F08CCF26960FB6F89460
:101A4000DEBF0FBECDBFCF91DF911F910F91FF90F1
:101A5000EF90DF90CF90BF90AF909F908F907F904E
:101A60006F905F904F903F902F9008952F923F92EC
:101A70004F925F926F927F928F929F92AF92BF929E
:101A8000CF92DF92EF92FF920F931F93DF93CF934A
:101A900000D000D000D0CDB7DEB7082F162F5A8364
:101AA000498360901E05E09027058E2D87702FEFEB
:101AB00030E0F22E01C0FF0C8A95EAF7802F90E00B
:101AC000019768E070E00E94041A6F5FA62EBB24A5
:101AD000C501A3E0880F991FAA95E1F74424552476
:101AE000481A590ACC24F8E07F2EEFEF8E2E912C65
:101AF000BC82AB8271C08E2D8770D72CD81A1D1571
:101B000048F48D2D811B940102C0359527958A9547
:101B1000E2F7F2228D2D8C0D90E08A9D10018B9DB5
:101B2000300C9A9D300C112480E090E09E838D83D0
:101B300043C04D815E81477050704115510571F56C
:101B4000E695E695E695C1018E0F911DFC01A981F0
:101B5000BA81EA0FFB1FE40DF51D20E030E06D8136
:101B60007E819081AFE1B5E08C9186958C9390FF5A
:101B700002C080688C93119685E0A732B80711F0F7
:101B80009695F2CF2F5F3F4F2830310529F0AB817A
:101B9000BC81EA0FFB1FE5CF7E836D83415E5A4F08
:101BA000FA0180818F216F2D0E94090C2D813E81C9
:101BB0002F5F3F4F3E832D83ED81E01708F4B9CFAF
:101BC0001D1508F4D12E1D19ED0CCD0C862D6E2D92
:101BD0000E94620BFF24FA94112309F08CCF269601
:101BE0000FB6F894DEBF0FBECDBFCF91DF911F912E
:101BF0000F91FF90EF90DF90CF90BF90AF909F90AC
:101C00008F907F906F905F904F903F902F900895AE
:101C1000AF92BF92CF92DF92EF92FF920F931F93FA
:101C2000CF93DF93A82E162FB0901E05F0902705B6
:101C30008F2D87702FEF30E0022F01C0000F8A95A3
:101C4000EAF7B8E0CB2ECFEFD0E022C08F2D87701F
:101C5000EC2CE81A1E1548F48E2D811B9E0102C043
:101C6000359527958A95E2F70223DA2C05C0802F57
:101C7000602F0E94090CDA94DD20C9F71E1508F4C4
:101C8000E12E1E19FE0C8B2D6F2D0E94620B0FEFA3
:101C90001123E1F6DF91CF911F910F91FF90EF900B
:101CA000DF90CF90BF90AF900895682F81E00E94A1
:101CB000080E08950F931F93182F809127058770A2
:101CC00021E030E0022F01C0000F8A95EAF705C03D
:101CD000802F602F0E94090C11501123C9F71F910A
:101CE0000F9108959F92AF92BF92CF92DF92EF92A1
:101CF000FF920F931F93082F162FF0901E05E09070
:101D000027058F1561F4E61618F4862F8E1904C086
:101D10000E94620B8E2D811B0E94550E5EC0DE2C30
:101D20006E1559F4F81610F48F1904C00E94620B56
:101D30008F2D801B0E945A0E50C08F1528F4AF2C97
:101D4000A81A99249A9409C0F81618F09924AA247C
:101D500004C0A82EAF18992493941E1528F4BE2C05
:101D6000B11ACC24CA9409C0E11618F0CC24BB24C3
:101D700004C0B12EBE18CC24C39481E00E94510C43
:101D8000BA14B0F4EA2CE694E194F90CEB0C1E14AE
:101D900014F4EA18DC0C8F2D6D2D0E94620B81E08B
:101DA0000E94510CF90C8F2D8919801779F715C0F5
:101DB000DB2CD694D194EC0CDA0C1D1414F4DB1843
:101DC000F90C8F2D6E2D0E94620B81E00E94510C48
:101DD000EC0C8E2D8C19811779F7802F612F0E94C2
:101DE000620B1F910F91FF90EF90DF90CF90BF900B
:101DF000AF909F9008958F929F92AF92BF92CF9293
:101E0000DF92EF92FF920F931F93CF93DF93062FF2
:101E1000982F9052903608F080E8805296E0899F83
:101E2000E0011124C050DF4F188180911D058823E7
:101E300009F41FE1E02EFF24E7FCF0948FEF90E01F
:101E40006C010E2C02C0CC0CDD1C0A94E2F7AA2413
:101E5000BB24AE18BF080A2C02C0959587950A943A
:101E6000E2F7D82E85E0882E912C8C0E9D1E10FF57
:101E700016C0898107FD09C090E00E2C02C0880FB2
:101E8000991F0A94E2F76C2D08C090E00A2C02C05A
:101E9000959587950A94E2F76D2D0E94090C21967D
:101EA000C815D90511F01695E2CF07FD03C080E0F3
:101EB0006C2D02C080E06D2D0E94090CDF91CF9146
:101EC0001F910F91FF90EF90DF90CF90BF90AF9058
:101ED0009F908F900895FF920F931F93082FF0907B
:101EE0001E05109127051770612F0E94FB0E11230C
:101EF00091F060912705685F8F2D0E94620B612F22
:101F00006850802F0E94FB0E6091270568508091D9
:101F10001E050E94620B1F910F91FF9008951F9361
:101F2000CF93DF93EC0110921D0536C01A3069F48F
:101F30001092280580911C058F5F80931C058830C6
:101F400059F581E00E94970B27C01D3029F180913F
:101F50002805853160F01092280580911C058F5F5F
:101F600080931C05883019F481E00E94970B9091B2
:101F70002805892F880F890F60911C05660F660F51
:101F8000660F880F0E94620B812F0E946B0F809159
:101F900028058F5F809328051991112339F6DF9169
:101FA000CF911F910895CF93DF93EC0105C0219647
:101FB000F90184910E946B0F9E01FE019491992377
:101FC000B1F7DF91CF910895CF93DF93EC0103C078
:101FD00021960E946B0F88818823D1F7DF91CF91E2
:101FE000089590E0282F30E0F90183E0EE0FFF1F05
:101FF0008A95E1F7E21BF30BE15DFA4F80818F3F99
:1020000009F091E0892F0895F8949091670580E098
:10201000E7E6F5E02291820F911D909349058093A8
:102020004805938180E02281820F911D90934B059A
:1020300080934A05958180E02481820F911D9093C1
:102040004D0580934C05978180E02681820F911D7C
:1020500090934F0580934E05918580E02085820FF7
:10206000911D90935105809350057894F894209198
:10207000700580912B0590912C05820F911D309158
:10208000710520E0820F931F9093450580934405CE
:10209000209172058091290590912A05820F911D4A
:1020A0003091730520E0820F931F90935D0580931C
:1020B0005C059091750580E020917405820F911D5B
:1020C00090938505809384059091770580E0209119
:1020D0007605820F911D90935B0580935A05909130
:1020E000790580E020917805820F911D90932E054F
:1020F00080932D0590917B0580E020917A05820FD9
:10210000911D90936505809364057894F89490915F
:102110007E0580E020917D05820F911D90934705FB
:10212000809346059091800580E020917F05820F85
:10213000911D9093820580938105789481E00895A4
:10214000F89481E080932F0578940895F8948AE0BC
:1021500080932F05789481E00895F89425E02093EA
:102160002F0580933005909331056093320570936D
:102170003305789481E00895F89422E020932F05A8
:102180008093300590933105609332057093330549
:10219000789481E0089520912B0530912C05FC0165
:1021A000E21BF30B9F018091290590912A05681B82
:1021B000790BF89483E080932F05E09330053093FA
:1021C0003105609332057093330540933405509385
:1021D0003505789481E00895F89424E020932F0544
:1021E00080933005909331056093320570933305E9
:1021F0004093340550933505789481E008957894A0
:1022000090913D0520E137E22150304011F09F3F91
:10221000D9F7F89496E090933D0580933E0560933E
:102220003F0540934005789481E0089581E008954A
:10223000F8943091730520E040917205F901E40FA4
:10224000F11DAF013091710520E0E09170052E0F76
:10225000311DFC01E21BF30BF0932C05E0932B05E1
:102260009B01241B350B30932A052093290590935D
:1022700045058093440570935D0560935C057894F3
:1022800081E0089578942091360580E197E20197E6
:1022900011F02F3FE1F7F89488E0809336057894A9
:1022A00081E0089578942091360580E197E20197C6
:1022B00011F02F3FE1F7F89487E08093360578948A
:1022C00081E0089578944091360520E137E221506D
:1022D000304011F04F3FD9F7F89429E020933605AC
:1022E0008093370590933805789481E00895909114
:1022F00083059F5F909383058B3141F4A6E6B5E09B
:10230000EDEFF4E001900D928150E1F78FEF8093B3
:10231000EB048093E4048093DD0480912F058F3FCC
:1023200011F480E00DC0ADEDB4E0EFE2F5E087E040
:1023300001900D928150E1F78FEF80932F0587E098
:10234000909136059F3F79F0E82FF0E0E352FB4F84
:10235000A6E3B5E097E00D9001929150E1F79FEF71
:1023600090933605895F90913D059F3F81F0E82F5E
:10237000F0E0E352FB4FADE3B5E087E00D90019252
:102380008150E1F78FEF80933D0585E10895882323
:1023900011F487E0089585E10895CF93DF93C6E8AF
:1023A000D5E020918E0530918F0588819981281B79
:1023B000390B40E050E060E070E080E190E00E9486
:1023C000181A30939F0420939E042A853B858A81A6
:1023D0009B81281B390B40E050E060E070E080E119
:1023E00090E00E94181A3093A1042093A0042C8539
:1023F0003D858C819D81281B390B40E050E060E0D9
:1024000070E080E190E00E94181A3093A3042093BA
:10241000A2042E853F858E819F81281B390B40E0C9
:1024200050E060E070E080E190E00E94181A309384
:10243000A5042093A404DF91CF91089586E895E048
:1024400060E070E040E150E00E94031C089586E8DF
:1024500095E060E070E040E150E00E94F31B809165
:102460008605909187052FEF8F3F920711F5109207
:1024700087051092860510928905109288051092A2
:102480008B0510928A0510928D0510928C0580E0C4
:1024900091E090938F0580938E05909391058093A2
:1024A0009005909393058093920590939505809362
:1024B00094050E94CD110895CF93DF9382E00E948E
:1024C0002D16CFEFD3E09E01281B390B30939705D3
:1024D0002093960583E00E942D169E01281B390B40
:1024E000309399052093980581E00E942D169E0156
:1024F000281B390B30939B0520939A0580E00E949E
:102500002D16C81BD90BD0939D05C0939C0580E068
:102510000E942D16C81BD90BC150DC4FD0939D05CE
:10252000C0939C05C0919A05D0919B0581E00E94C3
:102530002D16C150DC4FC81BD90BD0939B05C093FF
:102540009A05C0919805D091990583E00E942D16B7
:10255000C150DC4FC81BD90BD0939905C093980587
:10256000C0919605D091970582E00E942D16C1502A
:10257000DC4FC81BD90BD0939705C0939605DF910C
:10258000CF910895809162008F7B8093620081E0FB
:1025900090E00E9462090E945C12809196059091E1
:1025A000970590939F0580939E0580919805909143
:1025B00099059093A1058093A00580919A0590912B
:1025C0009B059093A3058093A20580919C05909113
:1025D0009D059093A5058093A40580916200806479
:1025E0008093620081E090E00E9462090E945C1288
:1025F000209196053091970580919E0590919F05B9
:102600002817390708F4C901281B390B309397059F
:102610002093960520919805309199058091A00509
:102620009091A1052817390708F4C901281B390B17
:10263000309399052093980520919A0530919B0538
:102640008091A2059091A3052817390708F4C901C4
:10265000281B390B30939B0520939A0520919C05EC
:1026600030919D058091A4059091A5052817390703
:1026700008F4C901281B390B30939D0520939C0554
:1026800008951F9310928F0510928E051092910558
:102690001092900510929305109292051092950554
:1026A0001092940510E00E94C212809196059091BC
:1026B000970520918E0530918F05820F931F90937F
:1026C0008F0580938E0580919805909199052091B2
:1026D000900530919105820F931F909391058093FF
:1026E000900580919A0590919B05209192053091DB
:1026F0009305820F931F9093930580939205809189
:102700009C0590919D052091940530919505820F2F
:10271000931F90939505809394051F5F103119F6D0
:102720000E94CD111F9108951F931092870510925A
:102730008605109289051092880510928B051092DB
:102740008A0510928D0510928C0510E00E94C2122D
:102750008091960590919705209186053091870587
:10276000820F931F9093870580938605809198052B
:10277000909199052091880530918905820F931FCA
:10278000909389058093880580919A0590919B0587
:1027900020918A0530918B05820F931F90938B05B2
:1027A00080938A0580919C0590919D0520918C05D0
:1027B00030918D05820F931F90938D0580938C052A
:1027C0001F5F103119F60E94CD111F9108952F92AD
:1027D0003F924F925F926F927F928F929F92AF92B1
:1027E000BF92CF92DF92EF92FF920F931F930E94BE
:1027F000C212E0909E04F0909F0400E010E08091EF
:1028000086059091870554E0969587955A95E1F74E
:102810006091960570919705681B790B80E090E0B8
:10282000A80197010E94F419672F782F892F992703
:102830007093970560939605A090A004B090A104B2
:10284000CC24DD24809188059091890534E096950B
:1028500087953A95E1F76091980570919905681B05
:10286000790B80E090E0A60195010E94F419672F92
:10287000782F892F99277093990560939805609018
:10288000A2047090A3048824992480918A059091D1
:102890008B05B4E096958795BA95E1F760919A0516
:1028A00070919B05681B790B80E090E0A401930177
:1028B0000E94F419672F782F892F992770939B0511
:1028C00060939A052090A4043090A50444245524D4
:1028D00080918C0590918D05F4E096958795FA95F9
:1028E000E1F760919C0570919D05681B790B80E074
:1028F00090E0A20191010E94F419672F782F892F8F
:10290000992770939D0560939C0560919E05709139
:102910009F0580E090E0A80197010E94F419672FBD
:10292000782F892F992770939F0560939E0560915A
:10293000A0057091A10580E090E0A60195010E949C
:10294000F419672F782F892F99277093A105609329
:10295000A0056091A2057091A30580E090E0A4011C
:1029600093010E94F419672F782F892F992770936C
:10297000A3056093A2056091A4057091A50580E070
:1029800090E0A20191010E94F419672F782F892FFE
:1029900099277093A5056093A4051F910F91FF904F
:1029A000EF90DF90CF90BF90AF909F908F907F90EF
:1029B0006F905F904F903F902F9008950E94271244
:1029C000E2E6F0E080818F7B8083E1E6F0E08081C9
:1029D0008064808381E00E941A1680E00E941A16AB
:1029E00082E00E941A1683E00E941A16089587E07A
:1029F0000E942D169093A7058093A60508958F9A9F
:102A000097988AE090E00E946209979A84E690E0A5
:102A10000E9462090895BF9AC79ABD9ABE9A8FEF25
:102A200082B984BB0895482F80FF0BC095B321E085
:102A300030E0062E02C0220F331F0A94E2F7922BD9
:102A40000CC085B321E030E0062E02C0220F331FF8
:102A50000A94E2F7922F9095982395BB41FF0AC004
:102A600083B121E030E002C0220F331F6A95E2F704
:102A7000822B0AC023B181E090E002C0880F991F29
:102A80006A95E2F78095822383B908959093AF0504
:102A90008093AE0508958091AE059091AF0508959D
:102AA0009093A9058093A80508958091A805909119
:102AB000A90508959093AB058093AA050895809188
:102AC000AA059091AB0508951092B1051092B0053A
:102AD0001092AD051092AC051092B2051092B3059C
:102AE0001092B4051092B5051092A9051092A80590
:102AF0001092AB051092AA058FEF93E09093AF056B
:102B00008093AE05C598C698BD9ABE9ABF9AC79ADB
:102B10001DBC1CBC8AEA8FBD82E18EBD80E094E0C2
:102B200097BD86BD87B7846087BF08951F920F92B7
:102B30000FB60F9211242F933F934F938F939F9330
:102B4000AF93BF938091B0059091B1059C01285E31
:102B50003F4F3093B1052093B00543E0283E340742
:102B600078F0805D93409093B1058093B00580919B
:102B7000AC059091AD0501969093AD058093AC05A1
:102B80008091AC059091AD059C012F5F3F4F309334
:102B9000AD052093AC0543E0283E3407C8F0875EBE
:102BA00093409093AD058093AC058091B2059091D0
:102BB000B305A091B405B091B5050196A11DB11D55
:102BC0008093B2059093B305A093B405B093B50577
:102BD0008091A8059091A90523E08F3F920710F0FE
:102BE00080E094E09BBD8ABD8091AA059091AB05E1
:102BF00043E08F3F940710F080E094E099BD88BDDA
:102C00008091AE059091AF0523E08F3F920710F0C1
:102C100080E094E09093790080937800BF91AF9129
:102C20009F918F914F913F912F910F900FBE0F90D9
:102C30001F901895E1E6F0E0908121E030E002C0BD
:102C4000220F331F8A95E2F7209592239083E2E6C4
:102C5000F0E0808182238083089590E497B997B152
:102C60008770892B87B987EC86B901C00000369937
:102C7000FDCF84B195B1392F20E0280F311D80910F
:102C8000B6059091B705820F931F9093B705809377
:102C9000B605C90108958091B6059091B7050895CC
:102CA0002F923F924F925F926F927F928F929F925C
:102CB000AF92BF92CF92DF92EF92FF920F931F934A
:102CC000CF93DF93CDB7DEB763970FB6F894DEBF2F
:102CD0000FBECDBF7C011B016A01FC011782168269
:102CE000838181FF66C3BE016F5F7F4F4B01F70198
:102CF0009381F10193FD859193FF81911F018823B9
:102D000009F453C3853239F493FD859193FF819182
:102D10001F01853239F4B70190E00E94631B560110
:102D20006501E5CF10E0512C20E02032A0F48B3279
:102D300069F030F4803259F0833269F420612CC09C
:102D40008D3239F0803339F4216026C0226024604E
:102D500023C0286021C027FD27C030ED380F3A304E
:102D600078F426FF06C0FAE01F9F300D1124132FC0
:102D700013C06AE0569E300D1124532E20620CC001
:102D80008E3221F426FD11C3206406C08C3611F466
:102D9000206802C0883641F4F10193FD859193FFCC
:102DA00081911F018111C1CF9BEB980F933018F4D3
:102DB0002061805E06C09BE9980F933008F0AAC19D
:102DC0002F7E26FF16E02F73722E853621F4F22F08
:102DD000F0647F2E08C0863621F4622F6068762E5C
:102DE00002C01111115077FE07C01C3348F444246F
:102DF0004394410E27E00BC0183030F4212F06C059
:102E000027E04CE3442E03C027E017E0412C560195
:102E100074E0A70EB11CF6016081718182819381FB
:102E2000042DA4010E946E1A6C01098100FF02C0EA
:102E300003FF06C071FC07C072FC08C0612C08C00B
:102E40003DE2632E05C02BE2622E02C090E2692EA5
:102E5000802F8C7099F1662011F084E001C083E02E
:102E6000851510F0512C0BC0581A73FC08C0B7011F
:102E700080E290E00E94631B5A94C9F7F3CF66206A
:102E800029F0B701862D90E00E94631B03FD03C06B
:102E900009EB10E002C005EB10E0F72DF0717F2E7A
:102EA000F8018491882309F476C271108052B70129
:102EB00090E00E94631B0F5F1F4FF2CF77FE0FC0A1
:102EC0004C0C04FF04C08A81813309F44A94141421
:102ED00074F5F8E0F41578F588E0482E2CC076FCFF
:102EE0002AC0812F90E08C159D059CF06CEFC616D2
:102EF0006FEFD60674F0772D7068772E0AC0E2E087
:102F0000F0E0EC0FFD1FE10FF11D8081803319F41B
:102F100011501111F4CF77FE0EC044244394410E9A
:102F2000812F90E0C816D9062CF41C1904C0442443
:102F3000439401C010E077FE07C01C141D043CF44C
:102F400096012F5F3F4F05C025E030E002C021E031
:102F500030E0662011F02F5F3F4F112331F0412FF9
:102F600050E04F5F5F4F240F351F452D50E0241771
:102F7000350714F4521A01C0512C872D897049F479
:102F8000552039F0B70180E290E00E94631B5A940B
:102F9000F7CF662029F0B701862D90E00E94631BD1
:102FA00073FC09C0552039F0B70180E390E00E941E
:102FB000631B5A94F7CF77FE5FC09C2D8D2DD7FEF3
:102FC00002C090E080E0692E782E40E050E0C6011B
:102FD000841991099D878C87960126193709280D38
:102FE000391D812F90E0EE27FF27E81BF90BFF87A3
:102FF000EE87FFEF6F167F0669F4B7018EE290E06F
:103000002B8B3A8B488B598B0E94631B59894889BB
:103010003A892B89C614D70454F06C857D856615D2
:1030200077052CF4F901E40FF51F818101C080E3DD
:1030300071E0671A71084F5F5F4FEE85FF856E166E
:103040007F066CF0B70190E02B8B3A8B488B598B45
:103050000E94631B2B893A8948895989CACF6C140D
:103060007D0439F49A81963318F4953311F404FFF2
:1030700081E3B70190E04BC08A81813309F00F7E74
:10308000B70190E00E94631B111105C074FE18C0C7
:1030900085E490E017C0B7018EE290E00E94631BC8
:1030A00082E066246394680EF401E80FF11D8081CC
:1030B000B70190E00E94631B115041F3862DF1CFC0
:1030C00085E690E0B7010E94631BD7FC05C0C114E0
:1030D000D10439F404FF05C0D194C194D1088DE224
:1030E00001C08BE2B70190E00E94631B80E36AE0BD
:1030F000C616D1042CF08F5FFAE0CF1AD108F7CFB3
:10310000B70190E00E94631BB701C601C0960E9400
:10311000631B41C1833631F0833779F0833509F081
:1031200058C021C0560172E0A70EB11CF601808183
:10313000898301E010E0640114C05601F2E0AF0E93
:10314000B11CF601C080D18026FF03C0612F70E062
:1031500002C06FEF7FEFC6012B8B0E94581B8C01C2
:103160002B892F7715C05601F2E0AF0EB11CF60186
:10317000C080D18026FF03C0612F70E002C06FEFD6
:103180007FEFC6012B8B0E94461B8C012B89206888
:10319000722E23FD1AC0852D90E008171907A8F498
:1031A000B70180E290E00E94631B5A94F4CFF601CD
:1031B00077FC859177FE81916F01B70190E00E94C5
:1031C000631B51105A94015011090115110579F72B
:1031D000E2C0843611F0893651F5560127FF09C047
:1031E000F4E0AF0EB11CF6016081718182819381A0
:1031F0000AC0F2E0AF0EB11CF60160817181882730
:1032000077FD8095982F022F0F7697FF08C0909535
:103210008095709561957F4F8F4F9F4F00682AE092
:1032200030E0A4010E94951BC82EC8183EC0022F92
:10323000853721F40F7E2AE030E01DC0097F8F36EC
:1032400091F018F4883559F0B0C0803719F08837FC
:1032500011F0ABC0006104FF09C0046007C024FF87
:1032600008C0066006C028E030E005C020E130E07C
:1032700002C020E132E0560107FF09C0F4E0AF0EC2
:10328000B11CF601608171818281938108C0F2E0F6
:10329000AF0EB11CF6016081718180E090E0A40165
:1032A0000E94951BC82EC8180F7706FF0BC0202F51
:1032B0002E7FC11650F404FF0AC002FD08C0202F63
:1032C0002E7E05C0DC2C202F03C0DC2C01C0D12EAB
:1032D00024FF0DC0FE01EC0DF11D8081803311F43F
:1032E000297E09C022FF06C0D394D39404C0822F44
:1032F000867809F0D39423FD13C020FF06C01C2D4F
:10330000D51418F4150D1D19D52CD51468F4B70172
:1033100080E290E02B8B0E94631BD3942B89F5CF26
:10332000D51410F45D1801C0512C24FF12C0B70150
:1033300080E390E02B8B0E94631B2B8922FF17C038
:1033400021FF03C088E590E002C088E790E0B70164
:103350000CC0822F867859F021FD02C080E201C0A6
:103360008BE227FD8DE2B70190E00E94631BC1163E
:1033700038F4B70180E390E00E94631B1150F7CF4F
:10338000CA94F401EC0DF11D8081B70190E00E9418
:10339000631BC110F5CF552009F4C2CCB70180E200
:1033A00090E00E94631B5A94F6CFF70186819781C3
:1033B00002C08FEF9FEF63960FB6F894DEBF0FBE8B
:1033C000CDBFDF91CF911F910F91FF90EF90DF90D4
:1033D000CF90BF90AF909F908F907F906F905F90B5
:1033E0004F903F902F900895DB018F939F930E9401
:1033F000401ABF91AF91A29F800D911DA39F900D88
:10340000B29F900D1124089597FB072E16F4009497
:1034100007D077FD09D00E944B1A07FC05D03EF477
:10342000909581959F4F0895709561957F4F089570
:10343000A1E21A2EAA1BBB1BFD010DC0AA1FBB1FB8
:10344000EE1FFF1FA217B307E407F50720F0A21B2A
:10345000B30BE40BF50B661F771F881F991F1A9497
:1034600069F760957095809590959B01AC01BD01C1
:10347000CF010895EE0FFF1F0590F491E02D099400
:103480000E945F1AA59F900DB49F900DA49F800D80
:10349000911D11240895AA1BBB1B51E107C0AA1F4F
:1034A000BB1FA617B70710F0A61BB70B881F991FE5
:1034B0005A95A9F780959095BC01CD010895A29FDA
:1034C000B001B39FC001A39F700D811D1124911DF8
:1034D000B29F700D811D1124911D0895283008F0B0
:1034E00027E03327DA01990F311D87FD916000969F
:1034F0006105710539F432602E5F3D9330E32A9502
:10350000E1F708959F3F30F080387105610509F0BB
:103510003C5F3C5F3D93913008F08068911DDF93E4
:10352000CF931F930F93FF92EF92192F987F969549
:10353000E92F96959695E90FFF27E95EFE4F9927AB
:103540003327EE24FF24A701E70105900894079490
:1035500028F4360FE71EF81E491F511D660F771F0E
:10356000881F991F0694A1F70590079428F4E70E89
:10357000F81E491F561FC11D770F881F991F661F10
:103580000694A1F70590079428F4F80E491F561FDA
:10359000C71FD11D880F991F661F771F0694A1F7BB
:1035A0000590079420F4490F561FC71FD81F990F85
:1035B000661F771F881F0694A9F7849110951770CE
:1035C00041F0D695C79557954795F794E7941A9586
:1035D000C1F7EDEBF0E06894159015913591659188
:1035E000959105907FE27395E118F10A430B560B14
:1035F000C90BD009C0F7E10CF11E431F561FC91FAC
:10360000D01D7EF4703311F48A95E6CFE894015012
:1036100030F0080F0AF40027021708F4202F239532
:10362000022F7A3328F079E37D932A95E9F710C0C9
:103630007D932A9589F60694979567953795179502
:103640001794E118F10A430B560BC90BD00998F0F7
:1036500023957E9173957A3308F070E37C93201361
:10366000B8F77E9170617D9330F0839571E37D931F
:1036700070E32A95E1F71124EF90FF900F911F91CD
:10368000CF91DF91992787FD90950895FC010590D2
:10369000615070400110D8F7809590958E0F9F1F54
:1036A0000895FB01DC0101900D920020E1F70895DF
:1036B000FC016150704001900110D8F78095909501
:1036C0008E0F9F1F08950F931F93CF93DF93182F93
:1036D000092FEB018B8181FD03C08FEF9FEF20C08D
:1036E00082FF10C04E815F812C813D8142175307BC
:1036F0007CF4E881F9819F012F5F3F4F3983288354
:10370000108306C0E885F985812F0995892B29F753
:103710002E813F812F5F3F4F3F832E83812F902F3C
:10372000DF91CF911F910F910895FA01AA272830B8
:1037300051F1203181F1E8946F936E7F6E5F7F4F7E
:103740008F4F9F4FAF4FB1E03ED0B4E03CD0670FFA
:10375000781F891F9A1FA11D680F791F8A1F911D4D
:10376000A11D6A0F711D811D911DA11D20D009F49D
:1037700068943F912AE0269F11243019305D3193DF
:10378000DEF6CF010895462F4770405D4193B3E0C8
:103790000FD0C9F7F6CF462F4F70405D4A3318F06F
:1037A000495D31FD4052419302D0A9F7EACFB4E020
:1037B000A6959795879577956795BA95C9F70097D8
:1037C0006105710508959B01AC010A2E0694579579
:1037D000479537952795BA95C9F7620F731F841FD0
:1037E000951FA01D0895DC01CB01FC01E199FECFDE
:1037F00006C0FFBBEEBBE09A31960DB20D92415070
:103800005040B8F70895DC01CB0103C02D910E9410
:103810000E1C41505040D0F70895262FE199FECF5D
:103820009FBB8EBB2DBB0FB6F894E29AE19A0FBEF8
:0838300001960895F894FFCF02
:103838000300000000000400005F00000E00070005
:1038480007001F147F147F141F242A7F2A121F23A6
:10385800130864621F36495522500600050300000C
:103868000E001C2241000E0041221C001F14083EBD
:1038780008141F08083E08080600A06000000F088A
:10388800080808080600606000000E00601C0300BD
:103898001F3E5149453E0E00427F40001F42615184
:1038A80049461D2141454B311F1814127F101D2711
:1038B80045454539173C4A4949301E0171090503F8
:1038C8001D36494949361D064949291E060036361E
:1038D80000000600AC6C00000F08142241000F1411
:1038E800141414141E00412214081F020151090661
:1038F8001F324979413E1F7C1211127C177F4949BA
:103908004936173E414141221F7F4141221C177F02
:1039180049494941177F09090901173E4149497A2F
:10392800177F0808087F0E00417F41001F20404193
:103938003F011F7F08142241177F404040401F7FEE
:10394800020C027F1F7F0408107F173E4141413E51
:10395800177F09090906173E414141BE1D7F091914
:1039680029461746494949311F01017F0101173F7F
:103978004040403F1F1F2040201F1F3F4038403F0E
:103988001F63140814631F07087008071F61514953
:1039980045430E007F4141000E00031C60000E00ED
:1039A80041417F000E04020102041F404040404094
:1039B8000C0000030400172054545478177F48441F
:1039C80044381738444444201D384444487F173845
:1039D8005454541817087E0901021718A4A4A4788F
:1039E800177F080404780E00447D40000D40808451
:1039F8007D000F7F102844000E00417F40001F7C8F
:103A080004780478177C0804047817384444443848
:103A180017FC242424181718242424FC177C0804D1
:103A2800040817485454542017043F4440201D3CB0
:103A38004040207C1F1C2040201C1F3C4030403C44
:103A48001F4428102844171CA0A0A07C1F446454BD
:103A58004C440E00083641000400007F00000E00B0
:103A6800413608001F02010204021FAA55AA55AADE
:103A7800010001000100FFFF4C00550052004D619C
:103A88006368696E652073746174653A002020204C
:103A9800202020202020202020202020202020201E
:103AA800202020202000494E495449414C495A4180
:103AB80054494F4E00545241434B5F434F52524575
:103AC8004354494F4E005455524E494E475F494E54
:103AD80053494445005455524E494E475F4F55543B
:103AE800534944450052554E4E494E475F464F5242
:103AF800574152440053454E44494E475F44415450
:103B0800410057414954494E470046494E49534898
:103B1800494E475F52554E00707265737320733378
:103B280020666F7220737461727400436F6E6E65E5
:103B38006374696F6E206661696C65642E0041620A
:103B48006F7274696E672E2E0050726573732073DE
:103B58003320666F7220636F6E74696E75652E0010
:103B6800496E697469616C697A6174696F6E2E2E29
:103B78002E0053746172746564210046696E69731E
:103B880068656421005374617274207265636569A5
:103B980076696E67004552524F523A20636F6C75D2
:103BA8006D6E7300636F6E6E656374207375636307
:103BB80065737366756C00456E64206F6620636F6D
:0E3BC8006D6D756E69636174696F6E2100002A
:00000001FF
