:100000000C94CC020C94EB020C94EB020C94EB02DB
:100010000C94EB020C94EB020C94EB020C94EB02AC
:100020000C94EB020C94EB020C94EB020C94EB029C
:100030000C94EB020C94EB020C94EB020C94EB028C
:100040000C94EB020C9452080C94C4060C94F50624
:100050000C94EB020C94EB020C94EB020C94EB026C
:100060000C94EB020C94EB020C94EB020C94EB025C
:100070000C94EB020C94EB020C94EB020C94EB024C
:100080000C94EB020C94EB020C94EB0200000000C9
:100090000000000000000000000000000000000060
:1000A0000000000000000000000000000000000050
:1000B0000000000000000000000000000000000040
:1000C0000000000000000000000000000000000030
:1000D0000000000000000000000000000000000020
:1000E0000000000000000000000000000000000010
:1000F0000000000000000000000000000000000000
:1001000000000000000000000000000000000000EF
:1001100000000000000000200000000000000000BF
:1001200000000000000000200000000000000000AF
:1001300000000000800F003E0000000000000000F2
:1001400000000000801F003E0000000000000000D2
:1001500000000000E03FF01F000000000000000071
:100160000000000070F0FF0100000000000000002F
:100170000000000070F0FF0100000000000000001F
:10018000000000001CC00F00000000000000000084
:10019000000000001C4008000000000000000000FB
:1001A000000000001C000000000000000000000033
:1001B0000000807F700000000000000000000000D0
:1001C0000000C07F70000000000000000000000080
:1001D0000000FCFFC1010000000000000000000062
:1001E0000000FFFFE0010000000000000000000030
:1001F0000000FFFFE0010000000000000000000020
:100200000000FFFFE001000000000000000000000F
:100210000000FFFFE10100000000000000000000FE
:1002200000C0FFFF1F0200000000000000000000EF
:1002300000F8FFFF7F0C000000000000000000003D
:1002400000F8FFFF7F0C000000000000000000002D
:1002500000F8FFFF3F0C000000000000000000005D
:1002600000F8FFFF3F0C000000000000000000004D
:1002700000E0CCFF7F020000000000000000000052
:1002800000C0046FFF01000000000000000000003B
:1002900000C0046FFE01000000000000000000002C
:1002A0000000036F7E00000000000000000000005E
:1002B000000003667F000000000000000000000056
:1002C00000C003001F00000000000000000000004C
:1002D00000F8879F0F0000000000000000000000F1
:1002E00000F8C79F0F0000000000000000000000A1
:1002F00000FE1FE0030000000000000000000000FE
:1003000000FE3FE0030000000000000000000000CD
:1003100000FE7FFC00000000000000000000000064
:1003200000FF9FFC00000000000000000000000033
:1003300000FF9FFC00000000000000000000000023
:1003400000E13F730000000000000000000000001A
:1003500000E11F730000000000000000000000002A
:1003600000C19F70000000000000000000000000BD
:1003700000C11F730000000000000000000000002A
:1003800000C11F730000000000000000000000001A
:10039000003E1F7C00000000000000000000000084
:1003A00000841FFC000000000000000000000000AE
:1003B00000C007E001000000000000000000000095
:1003C0000060C0000300000000000000000000000A
:1003D0000070C001030000000000000000000000E9
:1003E000007860030F000000000000000000000023
:1003F00000FF180C7F00000000000000000000005B
:1004000000FF180C7F00000000000000000000004A
:10041000C0FF1FFCFF010000000000000000000002
:10042000C0FF1FFCFF0100000000000000000000F2
:10043000C0FF1FFCFF0100000000000000000000E2
:1004400000000000000000000000000000000000AC
:10045000000000000000000000000000000000009C
:10046000000000000000000000000000000000008C
:10047000000000000000000000000000000000007C
:1004800000000000000000000000000031363300D2
:10049000322E3131006E616E00696E660000407A66
:1004A00010F35A00A0724E18090010A5D4E80000FD
:1004B000E87648170000E40B54020000CA9A3B009B
:1004C0000000E1F505000080969800000040420F12
:1004D000000000A08601000000102700000000E8D6
:1004E00003000000006400000000000A000000009B
:1004F000000100000000002C76D888DC674F08233C
:10050000DFC1DFAE59E1B1B796E5E3E453C63AE6A1
:1005100051997696E8E6C28426EB898C9B62ED4081
:100520007C6FFCEFBC9C9F40F2BAA56FA5F49005D0
:100530005A2AF75C936B6CF9676DC11BFCE0E40D04
:1005400047FEF520E6B500D0ED902E0300943577F8
:10055000050080841E080000204E0A000000C80C20
:10056000333333330F986E12831141EF8D21148989
:100570003BE65516CFFEE6DB18D1844B381BF77CE3
:100580001D901DA4BBE424203284725E228100C928
:10059000F124ECA1E53D270011241FBECFEFD0E1EF
:1005A000DEBFCDBF13E0A0E0B1E0EEE1FDE200E090
:1005B0000BBF02C007900D92A034B107D9F724E019
:1005C000A0E4B3E001C01D92A230B207E1F70E949F
:1005D00000060C948D160C94000080E895E20E94B1
:1005E00075060C94BF06F8946BE670E08AE491E01F
:1005F0000E9438062FE789E395E021508040904023
:10060000E1F700C000006BE670E08DE591E00E942C
:1006100038066BE670E088E891E00E9438062FEF1C
:1006200082E79AE0215080409040E1F700C000004E
:100630006BE670E08BE092E00E9438062FEF82E7D5
:100640009AE0215080409040E1F700C000002FEF79
:1006500082E79AE0215080409040E1F700C000001E
:100660002FEF82E79AE0215080409040E1F700C0F0
:1006700000002FEF82E79AE0215080409040E1F7A0
:1006800000C000006BE670E086E291E00E94380650
:100690002FEF82E79AE0215080409040E1F700C0C0
:1006A00000006BE670E08AE491E00E9438066BE699
:1006B00070E08DE591E00E9438062FEF82E79AE026
:1006C000215080409040E1F700C000002FEF82E70A
:1006D0009AE0215080409040E1F700C000002FEFE9
:1006E00082E79AE0215080409040E1F700C000008E
:1006F0006BE670E088E891E00E9438062FEF82E711
:100700009AE0215080409040E1F700C000006BE685
:1007100070E088EB91E00E9438066BE670E08EEEA8
:1007200091E00E9438062FEF82E79AE02150804046
:100730009040E1F700C000006BE670E08AEB92E0C9
:100740000E9438062FEF82E79AE0215080409040C7
:10075000E1F700C000002FEF82E79AE021508040CF
:100760009040E1F700C000002FEF82E79AE02150AF
:1007700080409040E1F700C000006BE670E088EB3D
:1007800091E00E9438062FEF82E79AE021508040E6
:100790009040E1F700C000006BE670E08EEE91E063
:1007A0000E9438066BE670E08BE092E00E9438060B
:1007B0002FEF82E79AE0215080409040E1F700C09F
:1007C00000002FEF82E79AE0215080409040E1F74F
:1007D00000C000006BE670E08BE492E00E943806F7
:1007E0002FEF82E79AE0215080409040E1F700C06F
:1007F00000002FEF82E79AE0215080409040E1F71F
:1008000000C000006BE670E083E992E00E943806C9
:100810002FEF82E79AE0215080409040E1F700C03E
:1008200000002FEF82E79AE0215080409040E1F7EE
:1008300000C000006BE670E08AE491E00E94380698
:100840002FEF82E79AE0215080409040E1F700C00E
:1008500000006BE670E08DE591E00E9438066BE6E3
:1008600070E088E891E00E9438062FEF82E79AE076
:10087000215080409040E1F700C000006BE670E03E
:100880008BE092E00E9438062FEF82E79AE0215039
:1008900080409040E1F700C000002FEF82E79AE02F
:1008A000215080409040E1F700C000002FEF82E728
:1008B0009AE0215080409040E1F700C000002FEF07
:1008C00082E79AE0215080409040E1F700C00000AC
:1008D0006BE670E08BE492E00E9438062FEF82E72F
:1008E0009AE0215080409040E1F700C000006BE6A4
:1008F00070E083E992E00E9438066BE670E08AEBD4
:1009000092E00E9438062FEF82E79AE02150804063
:100910009040E1F700C000002FEF82E79AE02150FD
:1009200080409040E1F700C000002FEF82E79AE09E
:10093000215080409040E1F700C000006BE670E07D
:1009400088E891E00E9438062FEF82E79AE0215074
:1009500080409040E1F700C000006BE670E088E85E
:1009600091E00E9438062FE789E395E0215080400E
:100970009040E1F700C000006BE670E083E992E090
:100980000E9438062FEF82E79AE021508040904085
:10099000E1F700C000002FEF82E79AE0215080408D
:1009A0009040E1F700C000006BE670E08BE492E05D
:1009B0000E9438062FEF82E79AE021508040904055
:1009C000E1F700C000006BE670E088E891E00E946B
:1009D00038062FEF82E79AE0215080409040E1F7FF
:1009E00000C000006BE670E083E992E00E943806E8
:1009F0002FEF82E79AE0215080409040E1F700C05D
:100A000000002FEF82E79AE0215080409040E1F70C
:100A100000C000006BE670E08BE492E00E943806B4
:100A20002FEF82E79AE0215080409040E1F700C02C
:100A300000006BE670E088E891E00E9438062FEF36
:100A400082E79AE0215080409040E1F700C000002A
:100A50006BE670E083E992E00E9438062FEF82E7B0
:100A60009AE0215080409040E1F700C000002FEF55
:100A700082E79AE0215080409040E1F700C00000FA
:100A80006BE670E08BE492E00E9438062FEF82E77D
:100A90009AE0215080409040E1F700C000006BE6F2
:100AA00070E088E891E00E9438062FEF82E79AE034
:100AB000215080409040E1F700C000006BE670E0FC
:100AC0008AEB92E00E9438062FEF82E79AE02150ED
:100AD00080409040E1F700C000006BE670E083E9E1
:100AE00092E00E9438066BE670E08BE492E00E9490
:100AF00038062FEF82E79AE0215080409040E1F7DE
:100B000000C000006BE670E08BE092E00E943806C7
:100B10006BE670E08BE092E00E94380678942FEF4D
:100B200082E79AE0215080409040E1F700C0000049
:100B30002FEF82E79AE0215080409040E1F700C01B
:100B400000002FEF82E79AE0215080409040E1F7CB
:100B500000C000002FEF82E79AE0215080409040D3
:100B6000E1F700C000002FEF82E79AE021508040BB
:100B70009040E1F700C000002FEF82E79AE021509B
:100B800080409040E1F700C000002FEF82E79AE03C
:100B9000215080409040E1F700C000002FEF82E735
:100BA0009AE0215080409040E1F700C00000089595
:100BB00080E00C94A3061F93CF93DF93182FC0E01F
:100BC000D0E080915303883019F0812F0E94A30652
:100BD00088EC90E00E942308909151038091520389
:100BE000981729F00E948B0687FDEBCF05C0C9310D
:100BF000D10511F02196E5CFDF91CF911F91089596
:100C00000E9496100E944A080E94C5070E94E409AB
:100C10000E94A2100E94ED02C0E0D0E0909151032A
:100C200080915203981749F00E948B0687FDF6CFFA
:100C300080FD06C0C0E0D0E014C0C130D10589F409
:100C400060E080E00E94230A80E00E94A2094CE854
:100C500050E060E480E80E94250B0E94F302C1E0AE
:100C6000D0E08FE39CE90197F1F700C00000D6CFF8
:100C7000CF93DF93EB019C01442737FD4095542F20
:100C800060E573EC80E090E00E94DC1464E66C9F09
:100C9000C0016D9F900D1124B901009709F1C4980E
:100CA000D901A81BB90BFD01E80FF91FEF2B39F093
:100CB0000197E5E3EA95F1F700000097A1F7C49AE0
:100CC000DB01A81BB90B009741F3FD01E80FF91FE9
:100CD000EF2B19F30197E5E3EA95F1F70000F3CF65
:100CE00081E090E0DF91CF9108959C0140E050E0D9
:100CF00084E0220F331F441F551F8A95D1F760E00F
:100D000074E284EF90E00E94BA14215031093093CC
:100D1000900029B90895F89490915103E92FF0E0DB
:100D2000EF5BFC4F808120915203283011F49093A7
:100D300052039F5F983018F49093510302C01092B1
:100D4000510378940895F89490915303E92FF0E0BB
:100D5000E75BFC4F80839F5F983018F490935303B8
:100D600002C0109253032091530390914003291322
:100D700003C098E090935303559A7894089588EBB4
:100D80008AB908951AB808951F920F920FB60F925C
:100D900011240BB60F928F939F93EF93FF939CB107
:100DA000809152038830B1F0E82FF0E0EF5BFC4F08
:100DB00090838F5F883018F48093520302C01092A2
:100DC00052039091520380915103981303C088E01D
:100DD00080935203FF91EF919F918F910F900BBEE3
:100DE0000F900FBE0F901F9018951F920F920FB685
:100DF0000F9211240BB60F922F938F939F93EF9323
:100E0000FF938091400390915303891799F0E82F45
:100E1000F0E0E75BFC4F2081983011F4809353039E
:100E20008F5F883018F48093400302C01092400313
:100E30002CB901C05598FF91EF919F918F912F91FF
:100E40000F900BBE0F900FBE0F901F9018959091B2
:100E50006500282F30E080E0A9014170507020FF2C
:100E600081E09E7F982B90936500809165004115ED
:100E7000510511F490E001C092E08D7F892B8093A1
:100E800065008091650021FD02C090E001C098E0FE
:100E9000877F892B80936500809165008F7E80938A
:100EA00065008FEF8ABB6BBB85E0982F9A95F1F7B1
:100EB00090916500946090936500982F9A95F1F752
:100EC000909165009B7F909365008A95F1F71BBA1E
:100ED0001ABA089590916500282F30E080E0A901AA
:100EE0004170507020FF81E09E7F982B90936500A9
:100EF000809165004115510511F490E001C092E028
:100F00008D7F892B809365008091650021FD02C053
:100F100090E001C098E0877F892B809365008091E5
:100F200065008061809365001ABA25E0822F8A955A
:100F3000F1F78091650084608093650085E18A9572
:100F4000F1F789B3909165009B7F90936500922F94
:100F50009A95F1F708951F93CF93DF9390915403DF
:100F6000992371F0182F1170CFEFDFEF812F0E94BE
:100F70006A07219787FD02C081E003C02097B1F77F
:100F800080E0DF91CF911F9108958FEF80935403FC
:100F90008091640088608093640080916400806127
:100FA00080936400809164008460809364008091E9
:100FB000640081608093640080916400826080930B
:100FC0006400B89A1ABA80916500877F80936500A3
:100FD000809165008F7E80936500809165008B7F96
:100FE00080936500809165008E7F8093650080917D
:100FF00065008D7F80936500C098979B07C0979888
:1010000080EA9FE00197F1F7979A04C080EA9FE099
:101010000197F1F7C09A80E00E94AB07882351F056
:1010200081E00E94AB07882311F082E001C081E0DB
:1010300080935403809154038F3F11F41092540312
:1010400080915403089520EA3FE004C0F9013197EC
:10105000F1F701970097D1F70895109291038093CB
:101060007203982F9F5F9093740396E99093920375
:10107000F89403C078940000F894B09BFBCF90ECF8
:101080009DB98FB996E9982790939003779A7894B1
:1010900080E00895B898C098BB9AC39A80E00E94F7
:1010A0002D0808951F920F920FB60F920BB60F9254
:1010B00011242F933F934F935F936F937F938F935D
:1010C0009F93AF93BF93EF93FF939FB120919203B0
:1010D000292720939203809191038823B1F4909360
:1010E00070039C3130F0109272031092700391E003
:1010F00009C0492F50E02091740330E04217530794
:10110000FCF09F5F909374031BC0482F50E06091E8
:10111000700370E0641775072CF04C585C4FFA01AF
:1011200090830EC0415050404617570749F4222380
:1011300039F0909171039F5F909371031092700347
:1011400090917203891750F4E82FF0E0EB5AFC4FAE
:1011500020812FB990919003922711C0891731F403
:10116000909190039FB9109290030BC090917403DB
:10117000891758F49FEF9FB99091900390959093A1
:1011800090038F5F8093910311C0B898C0981DB8E9
:10119000B898C098809173038F5F8093730378949D
:1011A000809170030E9438100E942D08FF91EF91EA
:1011B000BF91AF919F918F917F916F915F914F916F
:1011C0003F912F910F900BBE0F900FBE0F901F906D
:1011D000189580919603089580919F0308958093B8
:1011E00093030895982F9052903608F080E880522B
:1011F00090E0FC01EE0FFF1FE80FF91FEE0FFF1F3D
:10120000E050FF4F908180919503882309F49FE17E
:1012100080E020E090FD8F5F2F5F253011F09695E4
:10122000F9CF08951F93CF93DF93EC0110E005C031
:1012300021960E94F2088F5F180F88818823C1F7DA
:10124000812FDF91CF911F9108951F93CF93DF934B
:10125000EC0110E007C02196F90184910E94F20888
:101260008F5F180F9E01FE0194919923A1F7812FA2
:10127000DF91CF911F9108958093950308958091F8
:1012800095030895863130F4683020F46093940318
:101290008093A00308950F931F93DF93CF930F9232
:1012A000CDB7DEB7182F6854883018F580E0698311
:1012B0000E94AB0780E069810E94270780E00E94BE
:1012C000AB07612F660F660F660F605C80E00E94BF
:1012D000270707E913E082E00E94AB0782E0F801EC
:1012E00061918F010E942707F3E00F391F0799F7DB
:1012F00023C0185081E069830E94AB0781E06981B7
:101300000E94270781E00E94AB07612F660F660FDE
:10131000660F605C81E00E94270707E913E083E025
:101320000E94AB0783E0F80161918F010E942707BB
:10133000F3E00F391F0799F70F90CF91DF911F91BD
:101340000F910895FF920F931F93F82E18EB80E0F2
:101350000E94AB0781E00E94AB0780E0612F0E94F2
:10136000270781E0612F0E94270700E082E00E94AA
:10137000AB0783E00E94AB0782E06F2D0E94270736
:1013800083E06F2D0E9427070F5F003479F71F5FFE
:10139000103CE9F680E00E94AB0781E00E94AB07B9
:1013A00080E068EB0E94270781E068EB0E94270736
:1013B0001F910F91FF90089580E00E94A209109262
:1013C00094031092A003089580E00E94AB0780E090
:1013D0006FE30E94270780E00E94AB0780E060EC8B
:1013E0000E94270780E00E94AB0780E060E40E9433
:1013F000270780E00E94AB0780E068EB0E94270788
:1014000081E00E94AB0781E06FE30E94270781E043
:101410000E94AB0781E060EC0E94270781E00E94F8
:10142000AB0781E060E40E94270781E00E94AB07E0
:1014300081E068EB0E94270780E00E94A20981E01A
:101440008093930308950F931F93182F062F809373
:10145000960360939F0380E00E94AB0781E00E94A7
:10146000AB07069506950695085480E0602F0E940C
:10147000270781E0602F0E94270780E00E94AB07CA
:1014800081E00E94AB07113438F080E060E40E94F4
:10149000270781E0612F07C0612F605C80E00E9418
:1014A000270781E060E40E9427071F910F910895AC
:1014B000EF92FF920F931F93CF93DF9319EB47C0E7
:1014C0000830E8F480E00E94AB0780E0612F0E94C2
:1014D000270780E00E94AB076F2D605C80E00E94D0
:1014E000270782E00E946A07C7E9D3E082E00E94F2
:1014F0006A07899383E0CF39D807C1F71BC081E021
:101500000E94AB0781E0612F0E94270781E00E94C3
:10151000AB0781E06F2D0E94270783E00E946A07D6
:10152000C7E9D3E083E00E946A07899383E0CF395B
:10153000D807C1F7802F6E2D0E944B090F5F88E0FE
:10154000F80E003109F0BCCF1F5F103C31F0FF24D2
:1015500000E037E4E32EE10EB3CFE7E9F3E01192C8
:1015600083E0EF39F807D9F710E0812F67E00E9498
:101570004B091F5F1031C9F780919403882319F03C
:10158000815080939403DF91CF911F910F91FF9031
:10159000EF900895EF92FF920F931F93E82E162F6E
:1015A0008091960387FD39C000E0803408F001E0A7
:1015B000802F0E94AB0742E0F42EF00E8F2D0E9488
:1015C0006A078F2D0E946A079091930392FF02C0D1
:1015D000E0949B7FE122992319F41E2D182B08C05B
:1015E000913021F4109518231E2902C01E2D1827B2
:1015F000802F0E94AB07609196036064802F0E9449
:101600002707802F0E94AB078F2D612F0E9427078D
:10161000809196038F5F809396031F910F91FF90A7
:10162000EF90089590919F03977061E070E002C081
:10163000660F771F9A95E2F7882311F0862F02C074
:10164000862F60E00E94CA0A08952F923F924F921F
:101650005F926F927F928F929F92AF92BF92CF9242
:10166000DF92EF92FF920F931F93DF93CF9300D0FF
:1016700000D000D0CDB7DEB7082F162F5A8349838C
:1016800060909603E0909F038E2D87702FEF30E0DF
:10169000F22E01C0FF0C8A95EAF7802F90E00197A7
:1016A00068E070E00E94A6146F5FA62EBB24C501FF
:1016B00073E0880F991F7A95E1F744245524481A5E
:1016C000590ACC2468E0762E5FEF852E912CBC82DF
:1016D000AB8271C08E2D8770D72CD81A1D1548F497
:1016E0008D2D811B940102C0359527958A95E2F7CF
:1016F000F2228D2D8C0D90E08A9D10018B9D300C77
:101700009A9D300C112480E090E09E838D8343C02D
:101710004D815E81477050704115510571F5E69518
:10172000E695E695C1018E0F911DFC01A981BA8154
:10173000EA0FFB1FE40DF51D20E030E06D817E8196
:101740009491A7E9B3E08C9186958C9390FF02C0A9
:1017500080688C93119683E0AF39B80711F09695A5
:10176000F2CF2F5F3F4F2830310529F0AB81BC818C
:10177000EA0FFB1FE5CF7E836D8349565C4FFA016C
:1017800080818F216F2D0E94CA0A2D813E812F5F9B
:101790003F4F3E832D83ED81E01708F4B9CF1D152F
:1017A00008F4D12E1D19ED0CCD0C862D6E2D0E9446
:1017B000230AFF24FA94112309F08CCF26960FB642
:1017C000F894DEBF0FBECDBFCF91DF911F910F9177
:1017D000FF90EF90DF90CF90BF90AF909F908F9051
:1017E0007F906F905F904F903F902F9008952F9231
:1017F0003F924F925F926F927F928F929F92AF92A1
:10180000BF92CF92DF92EF92FF920F931F93DF93DD
:10181000CF9300D000D000D0CDB7DEB7082F162F61
:101820005A83498360909603E0909F038E2D8770C2
:101830002FEF30E0F22E01C0FF0C8A95EAF7802FDF
:1018400090E0019768E070E00E94A6146F5FA62EFA
:10185000BB24C501A3E0880F991FAA95E1F7442492
:101860005524481A590ACC24F8E07F2EEFEF8E2E2B
:10187000912CBC82AB8271C08E2D8770D72CD81A68
:101880001D1548F48D2D811B940102C035952795B7
:101890008A95E2F7F2228D2D8C0D90E08A9D100141
:1018A0008B9D300C9A9D300C112480E090E09E833B
:1018B0008D8343C04D815E81477050704115510545
:1018C00071F5E695E695E695C1018E0F911DFC0137
:1018D000A981BA81EA0FFB1FE40DF51D20E030E07D
:1018E0006D817E819081A7E9B3E08C9186958C9380
:1018F00090FF02C080688C93119683E0AF39B807DF
:1019000011F09695F2CF2F5F3F4F2830310529F027
:10191000AB81BC81EA0FFB1FE5CF7E836D83495607
:101920005C4FFA0180818F216F2D0E94CA0A2D81A0
:101930003E812F5F3F4F3E832D83ED81E01708F4FA
:10194000B9CF1D1508F4D12E1D19ED0CCD0C862D27
:101950006E2D0E94230AFF24FA94112309F08CCFE4
:1019600026960FB6F894DEBF0FBECDBFCF91DF91A4
:101970001F910F91FF90EF90DF90CF90BF90AF90AD
:101980009F908F907F906F905F904F903F902F909F
:101990000895AF92BF92CF92DF92EF92FF920F9392
:1019A0001F93CF93DF93A82E162FB0909603F0903D
:1019B0009F038F2D87702FEF30E0022F01C0000FA3
:1019C0008A95EAF7B8E0CB2ECFEFD0E022C08F2D7A
:1019D0008770EC2CE81A1E1548F48E2D811B9E0191
:1019E00002C0359527958A95E2F70223DA2C05C0C7
:1019F000802F602F0E94CA0ADA94DD20C9F71E15D5
:101A000008F4E12E1E19FE0C8B2D6F2D0E94230A67
:101A10000FEF1123E1F6DF91CF911F910F91FF900E
:101A2000EF90DF90CF90BF90AF900895682F81E046
:101A30000E94C90C08950F931F93182F80919F0344
:101A4000877021E030E0022F01C0000F8A95EAF78D
:101A500005C0802F602F0E94CA0A11501123C9F7B8
:101A60001F910F9108959F92AF92BF92CF92DF92F4
:101A7000EF92FF920F931F93082F162FF09096036B
:101A8000E0909F038F1561F4E61618F4862F8E19E7
:101A900004C00E94230A8E2D811B0E94160D5EC079
:101AA000DE2C6E1559F4F81610F48F1904C00E943C
:101AB000230A8F2D801B0E941B0D50C08F1528F408
:101AC000AF2CA81A99249A9409C0F81618F09924F2
:101AD000AA2404C0A82EAF18992493941E1528F4A4
:101AE000BE2CB11ACC24CA9409C0E11618F0CC243B
:101AF000BB2404C0B12EBE18CC24C39481E00E9444
:101B0000120BBA14B0F4EA2CE694E194F90CEB0C45
:101B10001E1414F4EA18DC0C8F2D6D2D0E94230A7C
:101B200081E00E94120BF90C8F2D8919801779F72B
:101B300015C0DB2CD694D194EC0CDA0C1D1414F4E3
:101B4000DB18F90C8F2D6E2D0E94230A81E00E9474
:101B5000120BEC0C8E2D8C19811779F7802F612FC9
:101B60000E94230A1F910F91FF90EF90DF90CF907A
:101B7000BF90AF909F9008958F929F92AF92BF9227
:101B8000CF92DF92EF92FF920F931F93CF93DF9349
:101B9000062F982F9052903608F080E8805296E0F9
:101BA000899FE0011124C050DF4F18818091950377
:101BB000882309F41FE1E02EFF24E7FCF0948FEF67
:101BC00090E06C010E2C02C0CC0CDD1C0A94E2F7F4
:101BD000AA24BB24AE18BF080A2C02C0959587958D
:101BE0000A94E2F7D82E85E0882E912C8C0E9D1E4B
:101BF00010FF16C0898107FD09C090E00E2C02C0BD
:101C0000880F991F0A94E2F76C2D08C090E00A2C07
:101C100002C0959587950A94E2F76D2D0E94CA0A35
:101C20002196C815D90511F01695E2CF07FD03C01E
:101C300080E06C2D02C080E06D2D0E94CA0ADF9109
:101C4000CF911F910F91FF90EF90DF90CF90BF90B9
:101C5000AF909F908F900895FF920F931F93082F3E
:101C6000F090960310919F031770612F0E94BC0D96
:101C7000112391F060919F03685F8F2D0E94230ACA
:101C8000612F6850802F0E94BC0D60919F036850A7
:101C9000809196030E94230A1F910F91FF9008954F
:101CA0001F93CF93DF93EC011092950336C01A3047
:101CB00069F41092A003809194038F5F8093940342
:101CC000883059F581E00E94580A27C01D3029F15B
:101CD0008091A003853160F01092A003809194035D
:101CE0008F5F80939403883019F481E00E94580A32
:101CF0009091A003892F880F890F60919403660F3C
:101D0000660F660F880F0E94230A812F0E942C0EF7
:101D10008091A0038F5F8093A0031991112339F65E
:101D2000DF91CF911F910895CF93DF93EC0105C010
:101D30002196F90184910E942C0E9E01FE0194913E
:101D40009923B1F7DF91CF910895CF93DF93EC0101
:101D500003C021960E942C0E88818823D1F7DF9141
:101D6000CF91089590E0282F30E0F90183E0EE0F45
:101D7000FF1F8A95E1F7E21BF30BE955FC4F8081C9
:101D80008F3F09F091E0892F0895F8949091DF0337
:101D900080E0EFEDF3E02291820F911D9093C1035B
:101DA0008093C003938180E02281820F911D9093E4
:101DB000C3038093C203958180E02481820F911D2B
:101DC0009093C5038093C403978180E02681820F9E
:101DD000911D9093C7038093C603918580E0208571
:101DE000820F911D9093C9038093C8037894F8944F
:101DF0002091E8038091A3039091A403820F911D89
:101E00003091E90320E0820F931F9093BD038093EC
:101E1000BC032091EA038091A1039091A203820F59
:101E2000911D3091EB0320E0820F931F9093D50317
:101E30008093D4039091ED0380E02091EC03820F16
:101E4000911D9093FD038093FC039091EF0380E03C
:101E50002091EE03820F911D9093D3038093D203C0
:101E60009091F10380E02091F003820F911D9093F7
:101E7000A6038093A5039091F30380E02091F203E1
:101E8000820F911D9093DD038093DC037894F89486
:101E90009091F60380E02091F503820F911D9093BD
:101EA000BF038093BE039091F80380E02091F70375
:101EB000820F911D9093FA038093F903789481E047
:101EC0000895F89481E08093A70378940895F89496
:101ED0008AE08093A703789481E00895F89425E040
:101EE0002093A7038093A8039093A9036093AA0368
:101EF0007093AB03789481E00895F89422E02093E6
:101F0000A7038093A8039093A9036093AA037093F7
:101F1000AB03789481E008952091A3033091A4034A
:101F2000FC01E21BF30B9F018091A1039091A2039E
:101F3000681B790BF89483E08093A703E093A803D0
:101F40003093A9036093AA037093AB034093AC034F
:101F50005093AD03789481E00895F89424E02093A1
:101F6000A7038093A8039093A9036093AA03709397
:101F7000AB034093AC035093AD03789481E0089594
:101F800078949091B50320E137E22150304011F070
:101F90009F3FD9F7F89496E09093B5038093B603EA
:101FA0006093B7034093B803789481E0089581E08B
:101FB0000895F8943091EB0320E04091EA03F90191
:101FC000E40FF11DAF013091E90320E0E091E80357
:101FD0002E0F311DFC01E21BF30BF093A403E093E1
:101FE000A3039B01241B350B3093A2032093A10371
:101FF0009093BD038093BC037093D5036093D40387
:10200000789481E0089578942091AE0380E197E27E
:10201000019711F02F3FE1F7F89488E08093AE0329
:10202000789481E0089578942091AE0380E197E25E
:10203000019711F02F3FE1F7F89487E08093AE030A
:10204000789481E0089578944091AE0320E137E2DE
:102050002150304011F04F3FD9F7F89429E02093F8
:10206000AE038093AF039093B003789481E008951A
:102070009091FB039F5F9093FB038B3141F4AEED96
:10208000B3E0E5E7F3E001900D928150E1F78FEFC7
:102090008093630380935C03809355038091A7032F
:1020A0008F3F11F480E00DC0A5E5B3E0E7EAF3E06F
:1020B00087E001900D928150E1F78FEF8093A703A5
:1020C00087E09091AE039F3F79F0E82FF0E0EB5A64
:1020D000FC4FAEEAB3E097E00D9001929150E1F72A
:1020E0009FEF9093AE03895F9091B5039F3F81F07E
:1020F000E82FF0E0EB5AFC4FA5EBB3E087E00D9042
:1021000001928150E1F78FEF8093B50385E1089547
:10211000882311F487E0089585E1089587E00E94FF
:10212000DF109093FF038093FE0308958F9A979892
:102130008AE090E00E942308979A84E690E00E944B
:1021400023080895BC9A089545E322C0C498282F17
:10215000392F0AC061507040542F5A95F1F761151C
:10216000710529F0215030402115310599F7C49AA5
:10217000282F392F07C06150704021503040542F14
:102180005A95F1F76115710519F02115310599F787
:1021900061157105D9F60895E1E6F0E0908121E03E
:1021A00030E002C0220F331F8A95E2F72095922378
:1021B0009083E2E6F0E0808182238083089590E4BA
:1021C00097B997B18770892B87B987EC86B901C019
:1021D00000003699FDCF84B195B1392F20E0280F4A
:1021E000311D8091000490910104820F931F909300
:1021F000010480930004C901089580910004909126
:10220000010408952F923F924F925F926F927F92B6
:102210008F929F92AF92BF92CF92DF92EF92FF92F6
:102220000F931F93CF93DF93CDB7DEB763970FB6AE
:10223000F894DEBF0FBECDBF7C011B016A01FC011B
:1022400017821682838181FF66C3BE016F5F7F4F55
:102250004B01F7019381F10193FD859193FF8191EA
:102260001F01882309F453C3853239F493FD859106
:1022700093FF81911F01853239F4B70190E00E94EC
:10228000FD1556016501E5CF10E0512C20E020320C
:10229000A0F48B3269F030F4803259F0833269F463
:1022A00020612CC08D3239F0803339F4216026C092
:1022B0002260246023C0286021C027FD27C030EDA4
:1022C000380F3A3078F426FF06C0FAE01F9F300D31
:1022D0001124132F13C06AE0569E300D1124532E83
:1022E00020620CC08E3221F426FD11C3206406C08A
:1022F0008C3611F4206802C0883641F4F10193FD58
:10230000859193FF81911F018111C1CF9BEB980FA4
:10231000933018F42061805E06C09BE9980F9330DB
:1023200008F0AAC12F7E26FF16E02F73722E853685
:1023300021F4F22FF0647F2E08C0863621F4622F3C
:102340006068762E02C01111115077FE07C01C3351
:1023500048F444244394410E27E00BC0183030F475
:10236000212F06C027E04CE3442E03C027E017E0EE
:10237000412C560174E0A70EB11CF60160817181F9
:1023800082819381042DA4010E940F156C010981A3
:1023900000FF02C003FF06C071FC07C072FC08C04A
:1023A000612C08C03DE2632E05C02BE2622E02C004
:1023B00090E2692E802F8C7099F1662011F084E0F4
:1023C00001C083E0851510F0512C0BC0581A73FC26
:1023D00008C0B70180E290E00E94FD155A94C9F749
:1023E000F3CF662029F0B701862D90E00E94FD15FD
:1023F00003FD03C009E914E002C005E914E0F72D6C
:10240000F0717F2EF8018491882309F476C271104F
:102410008052B70190E00E94FD150F5F1F4FF2CF71
:1024200077FE0FC04C0C04FF04C08A81813309F48D
:102430004A94141474F5F8E0F41578F588E0482E01
:102440002CC076FC2AC0812F90E08C159D059CF055
:102450006CEFC6166FEFD60674F0772D7068772E86
:102460000AC0E2E0F0E0EC0FFD1FE10FF11D8081FA
:10247000803319F411501111F4CF77FE0EC04424AB
:102480004394410E812F90E0C816D9062CF41C19F4
:1024900004C04424439401C010E077FE07C01C141C
:1024A0001D043CF496012F5F3F4F05C025E030E04E
:1024B00002C021E030E0662011F02F5F3F4F112372
:1024C00031F0412F50E04F5F5F4F240F351F452DF6
:1024D00050E02417350714F4521A01C0512C872DEF
:1024E000897049F4552039F0B70180E290E00E94EC
:1024F000FD155A94F7CF662029F0B701862D90E09C
:102500000E94FD1573FC09C0552039F0B70180E326
:1025100090E00E94FD155A94F7CF77FE5FC09C2D86
:102520008D2DD7FE02C090E080E0692E782E40E02D
:1025300050E0C601841991099D878C879601261960
:102540003709280D391D812F90E0EE27FF27E81B62
:10255000F90BFF87EE87FFEF6F167F0669F4B7016F
:102560008EE290E02B8B3A8B488B598B0E94FD15A5
:10257000598948893A892B89C614D70454F06C8547
:102580007D85661577052CF4F901E40FF51F81812F
:1025900001C080E371E0671A71084F5F5F4FEE85FD
:1025A000FF856E167F066CF0B70190E02B8B3A8B9F
:1025B000488B598B0E94FD152B893A894889598986
:1025C000CACF6C147D0439F49A81963318F495338C
:1025D00011F404FF81E3B70190E04BC08A8181339D
:1025E00009F00F7EB70190E00E94FD15111105C0A2
:1025F00074FE18C085E490E017C0B7018EE290E049
:102600000E94FD1582E066246394680EF401E80FD1
:10261000F11D8081B70190E00E94FD15115041F33A
:10262000862DF1CF85E690E0B7010E94FD15D7FC1D
:1026300005C0C114D10439F404FF05C0D194C1947C
:10264000D1088DE201C08BE2B70190E00E94FD1538
:1026500080E36AE0C616D1042CF08F5FFAE0CF1A4F
:10266000D108F7CFB70190E00E94FD15B701C60170
:10267000C0960E94FD1541C1833631F0833779F051
:10268000833509F058C021C0560172E0A70EB11C75
:10269000F6018081898301E010E0640114C05601D5
:1026A000F2E0AF0EB11CF601C080D18026FF03C05E
:1026B000612F70E002C06FEF7FEFC6012B8B0E948D
:1026C000F2158C012B892F7715C05601F2E0AF0E61
:1026D000B11CF601C080D18026FF03C0612F70E0DD
:1026E00002C06FEF7FEFC6012B8B0E94E7158C01B4
:1026F0002B892068722E23FD1AC0852D90E00817C3
:102700001907A8F4B70180E290E00E94FD155A94E1
:10271000F4CFF60177FC859177FE81916F01B701C7
:1027200090E00E94FD1551105A94015011090115B5
:10273000110579F7E2C0843611F0893651F556015A
:1027400027FF09C0F4E0AF0EB11CF6016081718172
:10275000828193810AC0F2E0AF0EB11CF601608164
:102760007181882777FD8095982F022F0F7697FF2C
:1027700008C090958095709561957F4F8F4F9F4FC2
:1027800000682AE030E0A4010E942F16C82EC81865
:102790003EC0022F853721F40F7E2AE030E01DC0B5
:1027A000097F8F3691F018F4883559F0B0C0803722
:1027B00019F0883711F0ABC0006104FF09C0046054
:1027C00007C024FF08C0066006C028E030E005C04E
:1027D00020E130E002C020E132E0560107FF09C0ED
:1027E000F4E0AF0EB11CF6016081718182819381AA
:1027F00008C0F2E0AF0EB11CF6016081718180E08B
:1028000090E0A4010E942F16C82EC8180F7706FF6B
:102810000BC0202F2E7FC11650F404FF0AC002FD0A
:1028200008C0202F2E7E05C0DC2C202F03C0DC2CFE
:1028300001C0D12E24FF0DC0FE01EC0DF11D8081E1
:10284000803311F4297E09C022FF06C0D394D394AB
:1028500004C0822F867809F0D39423FD13C020FF93
:1028600006C01C2DD51418F4150D1D19D52CD51422
:1028700068F4B70180E290E02B8B0E94FD15D394A1
:102880002B89F5CFD51410F45D1801C0512C24FF0D
:1028900012C0B70180E390E02B8B0E94FD152B89BD
:1028A00022FF17C021FF03C088E590E002C088E73F
:1028B00090E0B7010CC0822F867859F021FD02C04C
:1028C00080E201C08BE227FD8DE2B70190E00E941B
:1028D000FD15C11638F4B70180E390E00E94FD15A4
:1028E0001150F7CFCA94F401EC0DF11D8081B701AE
:1028F00090E00E94FD15C110F5CF552009F4C2CC1F
:10290000B70180E290E00E94FD155A94F6CFF701DE
:102910008681978102C08FEF9FEF63960FB6F89480
:10292000DEBF0FBECDBFDF91CF911F910F91FF9002
:10293000EF90DF90CF90BF90AF909F908F907F905F
:102940006F905F904F903F902F90089597FB072EC8
:1029500016F4009407D077FD09D00E94FB1407FC01
:1029600005D03EF4909581959F4F0895709561959F
:102970007F4F0895A1E21A2EAA1BBB1BFD010DC0BB
:10298000AA1FBB1FEE1FFF1FA217B307E407F5071F
:1029900020F0A21BB30BE40BF50B661F771F881FFB
:1029A000991F1A9469F760957095809590959B0191
:1029B000AC01BD01CF010895052E97FB1EF40094D4
:1029C0000E94F31457FD07D00E94BA1407FC03D0ED
:1029D0004EF40C94F31450954095309521953F4F4B
:1029E0004F4F5F4F089590958095709561957F4FFB
:1029F0008F4F9F4F0895AA1BBB1B51E107C0AA1F11
:102A0000BB1FA617B70710F0A61BB70B881F991F8F
:102A10005A95A9F780959095BC01CD01089528306D
:102A200008F027E03327DA01990F311D87FD916007
:102A300000966105710539F432602E5F3D9330E3F5
:102A40002A95E1F708959F3F30F0803871056105C0
:102A500009F03C5F3C5F3D93913008F08068911D28
:102A6000DF93CF931F930F93FF92EF92192F987FCD
:102A70009695E92F96959695E90FFF27E950FB4F1C
:102A800099273327EE24FF24A701E7010590089436
:102A9000079428F4360FE71EF81E491F511D660FD4
:102AA000771F881F991F0694A1F70590079428F4B3
:102AB000E70EF81E491F561FC11D770F881F991F6B
:102AC000661F0694A1F70590079428F4F80E491F95
:102AD000561FC71FD11D880F991F661F771F0694A9
:102AE000A1F70590079420F4490F561FC71FD81F60
:102AF000990F661F771F881F0694A9F78491109578
:102B0000177041F0D695C79557954795F794E79478
:102B10001A95C1F7EDE9F4E0689415901591359197
:102B20006591959105907FE27395E118F10A430B49
:102B3000560BC90BD009C0F7E10CF11E431F561FFD
:102B4000C91FD01D7EF4703311F48A95E6CFE89446
:102B5000015030F0080F0AF40027021708F4202F64
:102B60002395022F7A3328F079E37D932A95E9F7AC
:102B700010C07D932A9589F60694979567953795A9
:102B800017951794E118F10A430B560BC90BD0099E
:102B900098F023957E9173957A3308F070E37C93D7
:102BA0002013B8F77E9170617D9330F0839571E3C7
:102BB0007D9370E32A95E1F71124EF90FF900F9138
:102BC0001F91CF91DF91992787FD90950895FC0182
:102BD0000590615070400110D8F7809590958E0F48
:102BE0009F1F0895FC016150704001900110D8F7BB
:102BF000809590958E0F9F1F08950F931F93CF93ED
:102C0000DF93182F092FEB018B8181FD03C08FEF1C
:102C10009FEF20C082FF10C04E815F812C813D81DB
:102C2000421753077CF4E881F9819F012F5F3F4FE2
:102C300039832883108306C0E885F985812F09959B
:102C4000892B29F72E813F812F5F3F4F3F832E83B2
:102C5000812F902FDF91CF911F910F910895FA014D
:102C6000AA27283051F1203181F1E8946F936E7FCB
:102C70006E5F7F4F8F4F9F4FAF4FB1E03ED0B4E0BC
:102C80003CD0670F781F891F9A1FA11D680F791FFD
:102C90008A1F911DA11D6A0F711D811D911DA11D0E
:102CA00020D009F468943F912AE0269F112430191E
:102CB000305D3193DEF6CF010895462F4770405DB9
:102CC0004193B3E00FD0C9F7F6CF462F4F70405D68
:102CD0004A3318F0495D31FD4052419302D0A9F7C3
:102CE000EACFB4E0A6959795879577956795BA95BD
:102CF000C9F700976105710508959B01AC010A2E83
:102D000006945795479537952795BA95C9F7620F59
:0E2D1000731F841F951FA01D0895F894FFCF18
:102D1E000300000000000400005F00000E0007002A
:102D2E0007001F147F147F141F242A7F2A121F23CB
:102D3E00130864621F364955225006000503000031
:102D4E000E001C2241000E0041221C001F14083EE2
:102D5E0008141F08083E08080600A06000000F08AF
:102D6E00080808080600606000000E00601C0300E2
:102D7E001F3E5149453E0E00427F40001F426151A9
:102D8E0049461D2141454B311F1814127F101D2736
:102D9E0045454539173C4A4949301E01710905031D
:102DAE001D36494949361D064949291E0600363643
:102DBE0000000600AC6C00000F08142241000F1436
:102DCE00141414141E00412214081F020151090686
:102DDE001F324979413E1F7C1211127C177F4949DF
:102DEE004936173E414141221F7F4141221C177F28
:102DFE0049494941177F09090901173E4149497A55
:102E0E00177F0808087F0E00417F41001F204041B8
:102E1E003F011F7F08142241177F404040401F7F13
:102E2E00020C027F1F7F0408107F173E4141413E76
:102E3E00177F09090906173E414141BE1D7F091939
:102E4E0029461746494949311F01017F0101173FA4
:102E5E004040403F1F1F2040201F1F3F4038403F33
:102E6E001F63140814631F07087008071F61514978
:102E7E0045430E007F4141000E00031C60000E0012
:102E8E0041417F000E04020102041F4040404040B9
:102E9E000C0000030400172054545478177F484444
:102EAE0044381738444444201D384444487F17386A
:102EBE005454541817087E0901021718A4A4A478B4
:102ECE00177F080404780E00447D40000D40808476
:102EDE007D000F7F102844000E00417F40001F7CB4
:102EEE0004780478177C080404781738444444386E
:102EFE0017FC242424181718242424FC177C0804F7
:102F0E00040817485454542017043F4440201D3CD5
:102F1E004040207C1F1C2040201C1F3C4030403C69
:102F2E001F4428102844171CA0A0A07C1F446454E2
:102F3E004C440E00083641000400007F00000E00D5
:102F4E00413608001F02010204021FAA55AA55AA03
:00000001FF
